:020000040000fa
:10000000f07f002011360000233700009f380000e9
:1000100000000000000000000000000000000000e0
:10002000000000000000000000000000ff2f0000a2
:100030000000000000000000ff2f0000ff2f000064
:10004000ff2f0000ff2f0000a1380000ff2f00004d
:10005000ff2f0000ff2f0000ff2f0000ff2f0000e8
:10006000ff2f0000ff2f0000ff2f0000ff2f0000d8
:10007000ff2f0000a1230000ff2f0000ff2f000032
:10008000ff2f0000ff2f0000ff2f0000ff2f0000b8
:10009000ff2f0000ff2f0000ff2f0000ff2f0000a8
:1000a000ff2f0000ff2f0000ff2f0000ff2f000098
:0c00b000ff2f0000ff2f0000bd3b0000f0
:020000040000fa
:1000bc00f8b5c046f8bc08bc9e467047a935000090
:1000cc00f8b5c046f8bc08bc9e46704781350000a8
:020000040000fa
:1000dc00f0b5030095b00b20002b00d174e11a6829
:1000ec005e680b92002e01d100f062fc9b680193bc
:1000fc00db680293002b01d100f05dfc019bdb79e6
:10010c001093cf2b01d900f05afc13780d930123d7
:10011c000d9a1a40019b0a921f889b780393002a20
:10012c0016d10c203b008446039979188cb28b4273
:10013c005bdb002a0cd10c208446019b99799b88af
:10014c0059188cb28b425bdb002a01d100f03afccf
:10015c003c000025039b0097fb180c930c9b9c42c6
:10016c0059db019b00259b880593019b9b79089388
:10017c00059b1c00a4460693089b63440f930f9b9e
:10018c009c4256db009b039a3900029803f098f8c6
:10019c00069b0790089a0599029803f091f8019b29
:1001ac005b890e936b469b8b834200d2031c0e9a89
:1001bc009bb2934201d200f005fc009b039a3900dc
:1001cc00019802f06ffc0d9b009adb06db0f11937c
:1001dc007b1c05009a4200d8f8e000230993049395
:1001ec001300013b3c00139348e065465d430298c5
:1001fc002d5c852d01d12300012201339bb296e7a2
:10020c0065465d4302982d5c852d01d123000122aa
:10021c0001339bb296e72100029803f039fc00b23f
:10022c00002803dda84201dd050000940134a4b2ce
:10023c0094e72100029803f02bfc00b2002803dda8
:10024c00a84201dd050006940134a4b297e723000f
:10025c00039a3900029803f033f8049b12908342fe
:10026c000ad2119b22000099019802f0b5fd0028da
:10027c0002d0129b099404930134a4b2139b9c42a8
:10028c00e5d30c9b009a013b9a4205d2941c0c9b23
:10029c00a4b29c4200da9de0049b0e9a934200d2d9
:1002ac00afe0099b039a3900019802f0fbfb032392
:1002bc0003900c93089a069b0599019802f0f2fba7
:1002cc000d9b069a9b06db0f0d93059b009001334b
:1002dc009a4200d8b0e0002309931f001300059c3c
:1002ec00023b1293129b9c4200d28fe00f9b069a0a
:1002fc00013b9a4205d2941c0f9ba4b29c4200da9b
:10030c009ee00e9b9f4200d2afe0099b089a059994
:10031c00019802f0c7fb049a02903b1c974201d251
:10032c006b461b8a9bb2049304230c9a1a430592c6
:10033c000a9b0122002b00d0c1e069460988bd4b05
:10034c00f180694609883270318169460988758067
:10035c0099836946898b0598718169460988b580ae
:10036c00d980694609881d831981694609881d80d1
:10037c00598106215d809d80084200d07ce06b464f
:10038c0028229b181b7833736b461b8df38200203d
:10039c00b288a84b1a83328a5a8332899a83b28ada
:1003ac00da83059bdb0702d581230b9a1370062396
:1003bc00059a1a4208d03022059b13401a000b9b59
:1003cc001b7813430b9a137015b0f0bd00230993df
:1003dc00049356e72300039a3900029802f070ff49
:1003ec00049b129083420ad2119b2200009901981f
:1003fc0002f0f2fc002802d0129b09940493013401
:10040c0045e7002303950493112352e72300089a30
:10041c000599029802f054ff1190874209d20d9b66
:10042c0022000699019802f0d7fc002801d0119ff8
:10043c0009940134a4b255e7002309931f0055e732
:10044c002300089a0599029802f03aff119087420e
:10045c0009d20d9b22000699019802f0bdfc0028e0
:10046c0001d0119f0994013446e720230c9a1a43ba
:10047c00009b059202935be732736a469289694648
:10048c00f2816a469289098a32826a461289f1821d
:10049c0072826a461289b2826a4692899a816a4647
:1004ac009289da816a4692891a826a4612895a823c
:1004bc006a4612899a826a461289da8267e7019b38
:1004cc0037005b7ab4460893109b5a481b099a4034
:1004dc00013a93b20022069363461b78db0768d47b
:1004ec000100012320315b4253520100243153524d
:1004fc000c2302329c44042aeed10324089b059958
:10050c0023401c000623327b194200d173e16b4659
:10051c009b8b73816b461b8af382464b002a00d05f
:10052c0099e01b8c5a1b9d4200d9ea1a039992b28e
:10053c008b426fd35b1a9bb271889a426dd92200a1
:10054c00039803f0c7f8f58170803a4d009aab8c94
:10055c009a426bd89a1a029992b28b4270d35b1a58
:10056c009bb2f1889a426ed92200029803f0b2f83d
:10057c006b461b88f08073820123f28933736a8384
:10058c006a84738a3282eb83eb84b382aa81ea8118
:10059c002a826b82ab82eb82002401223b781340cf
:1005ac0000d095e17b810134e4b20c37022cf4d1fc
:1005bc00ede663469988204bd45a0b1ba14200d21e
:1005cc00631a9bb2a1421bd9069ccb18a34200da3a
:1005dc009cb21a4bd45263461989164b1c33d45a0d
:1005ec000b1ba14200d2631a9bb2a1420dd9069cef
:1005fc00cb18a34200da9cb20e4b2433d45277e7cb
:10060c0000248b42e5d2cb1ae2e700248b42f3d2d2
:10061c00cb1af0e70399cb1a8de72200280003f0e0
:10062c0059f86b469b897080f3818ee7009ad21a39
:10063c0091e7c04600020020180200202002002092
:10064c000299cb1a8ce72200009803f043f86b4612
:10065c00f0801b898fe7f18932780491718a0691b9
:10066c00002a53d15b8c039a934238d39a1a92b2d4
:10067c009d4237d85b1b9bb29a4235d96b46220000
:10068c0028009b890499738003f024f8be4df081f7
:10069c00eb8c029a93422cd39a1a009992b29942fb
:1006ac002ad85b1a9bb29a4229d96b4622001b8925
:1006bc0006990098f38003f00df8012372883370cb
:1006cc002a832a84f3887082b280ab833381ab8413
:1006dc002a806a80aa80eb802b816b815ce7039a6d
:1006ec00d21ac4e7eb1ac6e7758022000499039866
:1006fc00cae7029ad21ad0e70099cb1ad2e76b4616
:10070c001b882200f38006990298d4e71b8c581b97
:10071c009d4200d9e81a9c4a0399528c80b28a42b5
:10072c0045d3511a89b24018039980b28b4241d3f8
:10073c005b1a9bb2954240d8521b92b29b189bb24b
:10074c007188220098423ad9039802f0c3ff220024
:10075c0070802800049902f0bdff8b4a0099938c9d
:10076c00f081581a994201d90099c81ad28c029971
:10077c0080b28a422bd3511a89b24018029980b2a6
:10078c008b4227d35b1a00999bb2914225d8521aff
:10079c0092b29b189bb2f1882200984220d9029801
:1007ac0002f098ff22000699f08000981fe0039950
:1007bc00891ab7e70399cb1abbe7aa1abde7280039
:1007cc0002f088ff2200708004990398c3e7029915
:1007dc00891ad1e70299cb1ad5e700998a1ad7e77b
:1007ec00009802f077ff2200f0800699029802f040
:1007fc0071ff7082d0e6002a0fd16b469b8b7188fb
:10080c0073812200280002f065fff18870802200bd
:10081c00009802f05ffff080bee63378002b0bd11e
:10082c006b469b8bf1892200f382280002f052ff69
:10083c00718af0812200b8e753490b8c9d422bd86a
:10084c005b1b9ab2898c009b8b4227d8c91a89b240
:10085c0052184d4992b24b8c9d4222d85b1bc98ccd
:10086c0000989bb288421ed8091a89b2591889b2cd
:10087c008a421bd9f1892200280002f02bff718ad1
:10088c00f0812200009802f025ff6b469b8b708252
:10089c00f382002333707fe6eb1ad2e7009b591ae0
:1008ac00d5e7eb1adbe70098411adee771882200e6
:1008bc00280002f00ffff18870802200009802f0ef
:1008cc0009ff6b469b8bf08073810023337363e6c7
:1008dc003b89bd880093019b7a885b7adb0604d543
:1008ec000021200002f0cefd0200b9883b788a423c
:1008fc0037d2180704d40198891a007a814206dd90
:10090c00ba80042293431a000a2313433b70019bc1
:10091c00fa885b7adb0604d50121200002f0b2fdd7
:10092c00020039893b788a4230d2980604d4019867
:10093c00891a007a814206dd3a81102293431a000b
:10094c00222313433b70bb88ab4200d02be63b8980
:10095c00009a934200d026e602223b7893433b70e8
:10096c0021e658070ad40198511a007a8142cedd4b
:10097c00ba80082293431a000623c6e7ba800822dd
:10098c0093430622c1e7c04600020020d8060ad4d1
:10099c000198511a007a8142d5dd3a812022934385
:1009ac001a001223cde73a81202293431222c8e782
:1009bc000b200596f5e40b20029b0593f1e4022035
:1009cc000023fae700200b9b0590187030707081a3
:0809dc003073f082e5e4c0462f
:020000040000fa
:1009e400f0b585b00390039b0b20002b00d1fde0f4
:1009f4005d68904b69691d60ab6808001a7800292e
:100a040000d008788c4c012321002a311a4009783f
:100a140003405e00164391423dd1111e00d00321d4
:100a240020002a30027042789a4238d11a1e00d02f
:100a3400032220002a30437088008049703109184d
:100a4400885c032e2fd1a21cd37f002b09d1012354
:100a5400d37722002c321370774a931cdb7f002b50
:100a64002dd02a68e9681288098852084908521862
:100a7400e28529696a680988128849085208521867
:100a84002286032800d979e06d4e03f04df8e70182
:100a94002800b500db00514251410131c0e75a4200
:100aa4005a410132c5e7220000232c321370644af4
:100ab4000021525e0132cfd1a21cd377cce7012ea4
:100ac40006d129680988d185696809881186d8e71b
:100ad400022ed6d1e9680988d1852969f5e700266f
:100ae40023002000323331000c2214301e70267291
:100af400e66003f033f8230033331e702300083319
:100b04002674de77e78d268e278066800235e97f9e
:100b140010208ab2974200d2122080235b005b1a15
:100b24009f4201d901210843964201d20822104371
:100b3400b34201d20423184301f06cf92300343387
:100b44001870631cdb7f002b15d0e38e9f424fd3bc
:100b5400ff1a394abfb2138f9e424bd3f61a354b54
:100b6400b6b21b680133db7f9f4201d89e4202d993
:100b7400531c0022da770022314b1a802e4ca37fbb
:100b8400012b01d1237f2374237c0122190091437b
:100b9400f02900d073e121000831c97f114203d04c
:100ba4002200012128321170a21cd27f002a12d007
:100bb400220028321278002a0dd05a1e422a00d967
:100bc40061e1043323743f22237c9343c02b02d07e
:100bd4000022a31cda77039b08341d6802f086ff09
:100be40028700020237a6b70e37fab7005b0f0bdf2
:100bf400df1baee79e1bb2e7e38d0022e386238e64
:100c04002387230029331a70637f93420ad0a823d1
:100c1400237420000c221430002102f09fff0023d3
:100c24003380abe7202001f0f5f82300343318704b
:100c3400efe7c04610000020dc000020c8270000b9
:100c44000c000020002b29d02b681988eb681b8826
:100c5400994200d2b9e0c91a6b682a691b881288c4
:100c640089b2934200d2b2e09b1a954a9bb2170014
:100c74002c373878012800d9abe0cb1810000024b9
:100c8400938702233a3004703b708d4c237c002bf5
:100c940004d0c02001f0bef8343420700022b35eca
:100ca400884a874c1268517e8b4200daa3e0210007
:100cb40033310978002900d09de02600012529362a
:100cc40037782f4200d096e0802001f0a3f823006b
:100cd4003d43343318703570e38d268801936b4699
:100ce4009b88a380238e02936b461b89e380019b20
:100cf400b34200d2ace09e1b714bb6b25d88029b3e
:100d0400ab4200d2a7e05d1b6e4badb21b68db7f2c
:100d14009e4201d89d4210d9270033373b78002bdf
:100d24000bd102f01dfd030030201843c0b201f0c6
:100d340071f80123343420703b70614c2300333349
:100d44001b78002b00d119e75e4b5f4f1b68002214
:100d5400b95eda7e914200db10e71a7fb24203d318
:100d64005b7fab4200d309e702f0fafc0200f028f3
:100d74001ed0200032300378002b0cd025005021e7
:100d8400343511432d78c9b28d4204d1217a013b07
:100d940001392172037050201043c0b201f03af8b7
:100da4002300220034333232187013780133137065
:100db4000022bb5e013301d000233b806b469b883d
:100dc40023806b461b896380d8e6591a44e7d31afb
:100dd4004be7022800d058e70635cb18918fea7ffd
:100de4009bb2881883425adc9a18914200dc4ce783
:100df4000121494254e0d17e314d8b420ddb022664
:100e040032490f78374208d1a02001f003f82f4b64
:100e140034353e4328701e705ee7927e934200daba
:100e24005ae72b0033331f78002f00d054e72e00ed
:100e340029363378032b00d04ee7902000f0eaffe8
:100e44000122214b34355242287037701a8043e70f
:100e5400019bf61a50e7029bed1a55e70023f25e58
:100e64006b7e9a4200dc89e6802000f0d3ff2300e9
:100e74003433187000230134e377013bd0e6002bb0
:100e840000d08de690e60f2219009143902901d1fc
:100e9400103397e6d02b00d095e6d42392e60121b7
:100ea40020003a300278a3875218d2b20270c123cc
:100eb400012900d0c0232374014b0833da77e4e618
:100ec400dc000020100000200c00002005010020a0
:020000040000fa
:100ed400280200201c00000000000000c0020020c6
:100ee4000c00000000000000d001002030000000d1
:100ef40000000000d60200200100000000000000f5
:100f0400d702002001000000000000005c02002065
:100f14001400000000000000e002002006000000b1
:100f240000000000e60200200100000000000000b4
:100f3400940100203900000000000000e7020020b6
:100f44000100000000000000ee020020010000008b
:100f540000000000f0020020040000000000000077
:100f6400ef0200200100000000000000cd0100207d
:100f74000100000000000000fa030020010000004e
:100f84000100000001000000ce010020010000006b
:100f940000000000cf01002001000000000000005c
:100fa400010300200100000000000000cc0200202a
:100fb4000a00000000000000e80200200600000013
:100fc4000000000070020020140000000000000077
:100fd400840200201400000000000000020300202e
:100fe40001000000000000002c0400200a000000a2
:100ff4000100000005054014140a000a000800005e
:101004004404002008000000010000000200003039
:1010140000030100ec0300200e00000001000000aa
:101024001464461e28001432000102029696000041
:10103400030300200100000000000000070300205b
:10104400010000000000000008030020010000006f
:10105400000000001c0100203c0000000000000013
:10106400580100203c000000000000001400002093
:101074007800000000000000d802002008000000f2
:101084000000000004030020030000000000000032
:1010940044020020180000000000000000030020ab
:1010a4000100000000000000f40200200400000021
:1010b40000000000090300200100000000000000ff
:1010c4009802002014000000000000000a03002021
:1010d40001000000000000000b03002001000000dc
:1010e4000000000064040020030000000100000070
:1010f400000102005c040020060000000100000062
:101104000a008030000300000c0300207800000077
:1011140001000000000000000000000100000004c5
:101124000000000000002000000000040000000097
:1011340000004000000000040000000000000080e7
:101144000000000400000000000000400000000453
:101154000000000000000020000000040000000067
:101164000000001000000004000000000000000265
:1011740000000004000000000080000000000004e3
:10118400000000000040000000000004fc030020f8
:101194000c000000010000005c0400200c0300208f
:1011a40058010020ac0300201e00000001000000d4
:1011b40014010114010114010114010114010114a9
:1011c40001011401011401011401011401010000c1
:1011d400380400200a000000010000000a00040096
:1011e4000500140514010000cc03002010000000c9
:1011f40001000000d8020020380400201400002060
:10120400ac030020080400200c00000001000000d2
:101214000a00030060040020640400204c04002041
:10122400080000000100000014040020080400204d
:10123400140400200c000000010000000000000065
:101244001c01002058010020840300202800000015
:1012540001000000480200204c020020440200204b
:101264005402002058020020500200200814644652
:101274001e280014320001020296000054040020cb
:101284000800000001000000040300208403002083
:10129400dc03002010000000010000000500050030
:1012a4000000058103133c001400002020040020ea
:1012b4000c00000001000000000300204402002094
:1012c400dc030020fb0300200100000001000000fb
:1012d40001000000ac020020140000000000000027
:1012e400000000200c000000000000001a01002093
:1012f400020000000000000000020020280000009e
:1013040000000000ca0300200200000001000000e9
:1013140001f00000dc0000203e000000000000009e
:101324000c0000200800000000000000f80200206b
:1013340004000000000000008c00002050000000a9
:1013440000000000fc020020040000000000000077
:101354000000000000000000444444444444444469
:020000040000fa
:10136400f0b587b00090009b0b20002b00d1e2e188
:10137400002603275b68049602931b880196059355
:101384000396049b059a93421ed1009b1a68137816
:1013940059b200290bda0820002101268446049c56
:1013a40088b2844200d9ffe07f210b401370039b75
:1013b400002b00d009e1019801231178002800d105
:1013c4005be10b4313705ae1009bb5009b685d1908
:1013d4001e236a681178194001d001232b702b78e1
:1013e400042b73d00ad8022b2ed043d8012b23d040
:1013f400049b033601339bb20493c2e7852b00d1cf
:1014040082e0862b00d1a9e0072bf1d129895388ea
:1014140099425fd9c91a009b0298db6840799b5da9
:1014240089b20341dbb28b4254d86b78002b69d16b
:1014340001232b701770dbe703930029d8d1022313
:101444002b7008236b70d3e76978002910d0528879
:10145400042904d92a810139697001237ce02b898c
:101464009342f8d002d9013b2b81f4e70133fbe727
:101474002f70bde7298953889942b9d0009ad26860
:1014840010d9cb1a0299925d49799bb20a41d2b222
:101494009a42add8029b1b79002ba9d007222a704f
:1014a4006b70dae792195b1a11789bb299429fd854
:1014b4009378002b05d00499009801f061fd002871
:1014c40096d104232b70029b9b78e9e729895388e2
:1014d400994202d92f700023b4e7009a5b1ad268ac
:1014e4009bb2921911789942f4d29378002b06d0ca
:1014f4000499009801f044fd002800d078e76b7847
:10150400002b47d0013bcbe7029b00991b7a09686b
:101514000b7128895388984207d986232b70029b24
:101524009b786b700123019316e0009a1b1ad26812
:101534009bb291190a784978140001310c410121b8
:10154400121bd2b201919a4200d251e786232b702a
:10155400029b9b786b700b00039349e7288953889f
:10156400984209d96b78002b01d12f7001e0013b1f
:101574006b70012301933be7009a1b1ad2689bb25c
:1015840091190a784978140001310c41121bd2b226
:101594009a4204d285232b70029bdb78e8e76b78b0
:1015a400002be2d0013bbce70c2500984d4380683a
:1015b40045196f683878304205d164462d78a543c3
:1015c40001d0304338700131e9e6029b597a002991
:1015d40000d1f0e6802310785b42034313700129a5
:1015e40000d0e8e600218bb20393049b88b28342c7
:1015f40000d8e0e60c20009b48439b680825181897
:10160400029303781c00ac4315d0852b01d0032b27
:101614002ed10325009bdf682b004b43fb189b78de
:101624009c46002b07d000231e000595049c9c4279
:1016340008d8002e1cd1012540680378ab43037001
:101644000131d0e7039c9c420fd00c255d43029ce2
:101654002d5d042d01d0862d07d1059d5d437d1997
:10166400ad78654501d10126049b01339bb2dde7ca
:101674000123406805782b43e1e7994311705288b0
:10168400584b11001b88c8318b4251d99b1a9bb20d
:101694009c466346c82b4dd96346c83b9bb29c46c7
:1016a400009b1b685a88c8325a801a79002a00d0d5
:1016b40070e05a79002a01d0013a5a719a79002ac5
:1016c40001d0013a9a71009a50688679002e07d0a9
:1016d4005a79002a04d1078891b28f4234d85e71b6
:1016e400c579002d07d09a79002a04d1068891b2d1
:1016f400b1423cd39d71009b5b68da78002ac8d064
:101704001f880c23002103207b4302938bb2bb422e
:10171400bfd20c22009b4a439b689a181578852dea
:1017240004d15578002d38d0013d55700131ede7d5
:10173400934202d3002007b0f0bd2b495918891aef
:10174400c829f7d9013ba1e70c21009c5143a468a7
:1017540061180d78032d01d0082d06d14c680d8930
:101764006488ac4201d901350d810132b4e70c2102
:1017740000985143806841180878032801d008284c
:1017840006d14c6808896788874201d201380881ec
:101794000132ace7013a1a71ade701240500147077
:1017a40052684d431070009ad2685519ad78002dd7
:1017b400bcd0029c02321c1901920394039a9342f6
:1017c400b4d0019a1678ae4206d101225e6834780c
:1017d400144201d01a703070019a0c330332019212
:0c17e400ece7c0461a010020ffff0000e7
:020000040000fa
:1017f0000322f0b5a94b89b01b7a0592002b14d0b7
:10180000a74b1b6803931b6804931b880693a54b87
:101810001b6807930023029305936b461a89069b66
:101820009a4205d302229d4b1a72059809b0f0bd69
:10183000029b07995b00cc5a062302994b430399fc
:101840008968cd180c2302992e784b430399f6062c
:101850004968760fcb180193db7a042e00d966e134
:10186000300002f063f90500130046012701da0099
:101870000f21019a927a0a40934201d99e1af6b238
:1018800034416c80029b01330293c6e71c41864ab7
:10189000a3b26b80af88934217d9844a9b18320059
:1018a0009bb204998978402914d15b08161e13d184
:1018b0007f4a002697420fd181232b700e23059378
:1018c0002b785a0623d501232ee0774ad31a9bb2f0
:1018d0000022e6e7002aebd1042bf1d90f24b9044a
:1018e0003a123811890f224020402740002e3ad06a
:1018f000cf2b01d9002966d1152b6ed9002a67d1cb
:10190000002291426bd00139c9b20a2267e05bb272
:10191000002b0adb0322049bdb781340934208d19f
:10192000ff23019a137211232b70bf04bf0caf80e9
:10193000a8e7022b07d10f22019b5b7a9343019a00
:1019400053720923f0e7012bbdd10f22019b5b7a73
:101950001a4030231343019a53720d23e4e70131f7
:10196000cf3bc9b29bb2cf2b01d90329f7d1152b9d
:101970000dd90f2a06d10f2203290ad00131c9b28d
:10198000052206e00132153bd2b29bb2efe70f2ae7
:10199000f1d0022b11d90f280ad10f2a00d1c7e0ac
:1019a0000132d2b2052003290bd0022bdbd825e06f
:1019b0000130023bc0b29bb2ebe70f28edd0032908
:1019c0001cd10321f1e70139cf3bc9b29bb28fe7ac
:1019d000013a153bd2b29bb28ee7002a90d0022b7f
:1019e0000ad9002803d1002a10d1100006e00138de
:1019f000023bc0b29bb2f2e70028f4d009038cb2dc
:101a00001202144327430001074390e7013ad2b280
:101a10000a20022b00d96be7f0e71c41019ba4b21e
:101a20001f7a01200023ff2f14d17f23019a6c809d
:101a300013722b78012b00d024e7ff33ff339c4235
:101a400072d91a4be418a4b2052c00d81ae7452322
:101a50002b7017e73900d9400026014201d11e0042
:101a600008230133dbb2072bf4d92100100001f069
:101a700045fa002804d00123b3401f43019b1f7285
:101a80000123002e08d0013ef6b2b340019a127a2b
:101a90009a43019b1a72cce72b70cae7ac02002074
:101aa0000400002008000020ff01000001feffffed
:101ab000ff3f00001c41019ba4b25f7a3e09032e48
:101ac00015d02100100001f019fa00280ad10136c2
:101ad00001232b700f2336011f40019b3e435e7292
:101ae0006c80a6e7002ef3d0013ef6b2f2e70226a4
:101af000f0e71c410f26019ba4b25f7a3e4011d053
:101b00002100100001f0faf9002806d1013ef6b2da
:101b100001232b700f239f43dfe7032ef8d00136fc
:101b2000f6b2f7e70126f5e7044b1c1b8be7fee74f
:101b3000032901d0100038e7170056e7ff01000025
:020000040000fa
:101b4000f8b5ce46474680b5a04b1b78002b31d167
:101b50009f4ba0494722895c463a10008840987004
:101b60009d49c87bd87009781971984b1a709b4aa7
:101b70009b4b9978517159781171002111701b7824
:101b8000002b02d0130002221a70964b1b78db0741
:101b900000d49de0944b5b681a78d20700d491e0a2
:101ba0001b7bdb0700d48de08c4a137804210b43a8
:101bb000137092e08d4b1b78002bd8d0844b997812
:101bc000844a4723d25c463b9340dbb28b4227d00a
:101bd0000723012401e0013b72d3d8b222009a40ce
:101be0000a42f8d0031c062800d90623d9b20122e4
:101bf0008a4077498a70774a472153540c315354ad
:101c00000c3153540c3153540c315354d372d3759b
:101c1000543953540c3153540c31535401f096fa47
:101c20006b4bdb786c4ad27b9a4205d06a4ad373fd
:101c3000937453751376d376654b1b79664a127885
:101c40009a4205d0644a1370d37093715372137320
:101c50005f4b5b7a644a9168c8790209934208d065
:101c60000f220240ca71604a91681b01ca7913436e
:101c7000cb715f4b5b685f4a1178597651789976e2
:101c80009178d976d17819771179597751799977ef
:101c90009179d977d07920215854107a013158544c
:101ca000507a01315854907a01315854d07a013128
:101cb0005854117b252299544c4b00221a7056e738
:101cc00008008fe7454a137801210b43137004e0a5
:101cd000424a137801218b43137047490a783f48e1
:101ce00003781343037010320a705b0722d543490f
:101cf0000b681b885b08ca68128852089b184a68e0
:101d000012885208096909884908521801001809ff
:101d10004870100988701b010f2002401343cb70dc
:101d2000374c384838490022384b98467c2399462e
:101d3000c44615e031490b681b88284a18095070c1
:101d400049680888010991701b010f2101400b436c
:101d5000d370e5e76346d5540132023402300c31ca
:101d6000d3b2042b0bd88b6f5b8823804d464e5b20
:101d700006800025b342edd99b1bddb2eae70d6872
:101d80006e8826808d8805800027ae4201d9761b9b
:101d9000f7b2454657550133dbb2092bdcd91c4b52
:101da0001b79db0709d400f089ff0e4b1a78194b19
:101db0001a700cbc90469946f8bd01f0c7f9144a58
:101dc000137901218b431371ede7c046cf01002049
:101dd0002c0400200c030020ac030020e8020020ab
:101de0000403002000030020200400200203002040
:101df00054040020ec030020ce01002084030020c6
:101e00007002002084020020dcffff1fcc020020b3
:081e100044040020010300203e
:020000040000fa
:101e1800f7b5964b1a7a032a04d9013a1a72da6886
:101e2800120ada6004001a7a00219446d200d2b26b
:101e38009440da6814431a7cdc60f02a19d08c4e7e
:101e48000c224a439559b218576865402f4200d072
:101e5800a4e01900147a1431e0cae0c1902c00d033
:101e680093e05a1cd17f002903d0702252420a43c2
:101e78001a749a1cd27f002a00d081e00f21040036
:101e88008c43502c00d0d3e003217a4c01402278b7
:101e9800002a0bd01f25da1c5557002d06d1764a8b
:101ea8001e1d12680432d27f2570f277da1cd27fa9
:101eb80052b2002a18d103276478661c3e40b1420a
:101ec80000d070e05d1dec7f0134ec779c1de2775b
:101ed8001f245a1d14571a1dd27f52b2944200d0a3
:101ee8006ee00124da1cd477644ad27f52b20192a0
:101ef8006a461679fd22751c15403fd1604cfe3aa2
:101f080022805c4a5478594aa14204d00327a61972
:101f18003e40b14265d1019b574d961d012b55d1cd
:101f28001f232d68f3560335ed7f6db29d4201dd09
:101f38000133f3771f26504b951d1b68ae570333ab
:101f4800db7f5bb2b34259d1f0230f27d61d137440
:101f5800f37f01333b40a7000124f37716000332d7
:101f6800d27f3c4352b21b012343d417a41ae40f77
:101f7800083664002343f3770023eb773d4b597011
:101f880063463a4a01331372febd8f2c04d1591ca3
:101f9800ca7f0132ca776ce71c746ae701311429d9
:101fa80000d04de765e7651e3d40a94203d15d1da0
:101fb800ec7f013c89e7a14200d189e75c1d86e7f7
:101fc80052429442dad1da1cff248ce71f232d6891
:101fd800f3560335ed7f6db26d42ab42aadd013b8e
:101fe800a7e7264ef5775e1df577234e043336684e
:101ff8000536f67fde77224b1d809be75b429e42cb
:10200800bcd1f1230f27d61d1374f37fa400013b25
:102018003b400127f37716000332d27f3c4352b28c
:102028001b012343d417a41ae40f0836bc40a1e7c8
:102038007f210140202912d10124d91cca77591dba
:10204800ca77991dca77197ca143f02900d11a745f
:10205800f021084a073351700022da7790e7102cf4
:1020680000d08de70122034b1a7089e7dc000020bd
:1020780048270000ca03002010000020df000020cd
:042088000c00002028
:020000040000fa
:10208c00f0b587b0070001f0f7fc02220c25594c83
:10209c007d4323889343238001f0eefc564e336836
:1020ac005b685b195b68636401f0e6fc31684b6844
:1020bc005a191088514bd887062302205f438b682e
:1020cc00db1919789f88014201d0052119701b7802
:1020dc00db065b0f00d085e0917a494b09095b1850
:1020ec001b7a1b041f43137a3f021b063f0a1f4334
:1020fc0001f0c2fca764032701f0befc3368414920
:10210c005b6822695b195b7a0a401b093b401b0523
:10211c001343236101f0b0fc33685b685b195a7a96
:10212c0023883a40384f12021f401743278001f092
:10213c00a3fc0721336802265b68344f5d19ea7ae9
:10214c0023690a4012043b401343236101f094fcc1
:10215c002388334323802e4b5b680293002b44d09f
:10216c0001f08afca36c1b0e039301f085fc236920
:10217c001b051b0f049301f07ffc23889b059b0f11
:10218c00059301f079fc2388b343238001f074fca0
:10219c00012325791d433543edb201f06dfc25710a
:1021ac0001f06afc1b4b25691a68082311780b4354
:1021bc00137001f061fc23691f402761059a164bcf
:1021cc00049903980095029da84701f055fc2388bb
:1021dc001e43268001f050fc0122237f13432377fa
:1021ec0007b0f0bdfc239b037ce701f045fc227f8c
:1021fc000123f3e70058004204000020025800427b
:10220c0070380000ffffcffffffcfffffffff8ff60
:0c221c00ac02002000000020105800421e
:020000040000fa
:10222800f8b5574b1b78012b04d001f0b5fb0428f7
:1022380006d8f8bd524b00221a7001f059fbf4e79a
:1022480001f082fbad28f4d14e4b1b78002b13d143
:1022580001f0a2fb0328ecd901f076fb060001f09f
:1022680073fb484fb87001f06ffb040001f06cfb82
:10227800050001233b7004e0012bdad1002500247e
:1022880000260023404a1370404a13703d4b9b7848
:10229800802b70d0812b1cd0012b3dd0002b37d147
:1022a8003b4a1378012bfcd03a4f00233b7029009e
:1022b800200001f03bf922003100012001f0eaf989
:1022c800280001f055fbda2001f052fb01233b7096
:1022d8001ee02f4a1378012bfcd02e4b00221a70d7
:1022e80022003100280001f0d5f9002d0ad0651927
:1022f800edb2200000f038fc01f03afb0134e4b202
:10230800a542f6d1da2001f033fb224b01221a70e4
:102318001c4b00221a708ce71d4a1378012bfcd045
:102328001c4b00221a7022003100280001f0b2f97b
:10233800002c13d0002d0ad06519edb2200000f052
:1023480013fc01f015fb0134e4b2ac42f6d1da20fb
:1023580001f00efb0f4b01221a70d9e7002001f0a3
:1023680007fb002001f004fb002001f001fb5020d6
:1023780001f0fefaebe7034b00221a7059e7c0465a
:10238800e6020020e0020020d7020020d60200204a
:08239800e7020020fa03002017
:020000040000fa
:1023a000f0b5c64600b5574b9b7d002b17d0554a5c
:1023b000137edbb2927d52b2002a13db514a137ea8
:1023c000dbb2927dd20702d5db0700d582e04d4a11
:1023d000137edbb2927d520701d55b074bd404bc60
:1023e0009046f0bd5bb2002be8da464b5b8b0722d0
:1023f0001340e3d0444ce38501f068fa414b84225a
:102400001a752c230022e254636a002bd6d03e4a70
:10241000906a9847d2e7bb68f35c0b8593680133f9
:102420009360936898460b7e23420bd0404509d9b0
:102430004b682b40012beed163469b685b009b5b96
:102440000b85ebe7304b9a685b689a42bfd32e4b03
:1024500000221a755a602b4a01211175db68002b86
:10246000b5d0294a10699847b1e727490a6a8969ae
:102470005200535215e0244a2c23d35c002baed0db
:10248000214b1a6adb699a42a9d21e4a138d9bb26c
:10249000516807220a40012ae7d01b4a116a926953
:1024a0005354194b1a6a01321a621a6adb699a424a
:1024b00000d094e7144b00222c215a54da61114abf
:1024c000583111755b6a002b00d188e70e4a906a7b
:1024d000984784e70c4b1b7d002b00d177e70a4b14
:1024e0009a685868074b1b7edb07abd58242a9d29e
:1024f000054b1e68034907259c461f001a0001244e
:0c25000096e7c04600140042d001002005
:020000040000fa
:10250c00f7b58021424a434c1369c90023400b4361
:10251c00136153692340194351610b24002844d0a3
:10252c0003680c2419880023009301939ab29142fa
:10253c003dd8009b0224002b37d0019b009a1b0432
:10254c001a439446002001210f24334f0e37634663
:10255c00c3400b4211d0c35d1f2b3ad82f4d5a08e4
:10256c0052190b4231d01025167826403543157080
:10257c002b4a9b181a780a431a7001302028e6d18e
:10258c000024284d01f078fa274f2c803e7aa64281
:10259c0031d101f071fa6b469b883400ab8201f0ab
:1025ac006bfa009bab6101233b722000febd220045
:1025bc005a434568019eaa18158852682e43009dff
:1025cc000196154300950133b0e71578a5430d43eb
:1025dc00cde7203bdbb2154d5a0852190b4206d001
:1025ec0010251678264035431570114ac1e7157829
:1025fc00a5430d43f8e701f03ffaab8a019a1a4361
:10260c00aa8201f039faab69009a1a43aa61cce7a5
:10261c0000500042fff8ffff70380000300000410e
:10262c004000004100580042ac020020b0000041c4
:04263c00c000004199
:020000040000fa
:10264000f0b50b238db0002823d0436806680193b2
:102650009a78737806935b000a93530801330593c5
:1026600093b20b9300239c460093019b00991b8817
:102670008b4211d8069b01990133dbb29342924100
:1026800089681340019ac95c5268117002685370de
:10269000002318000db0f0bd062300994b43b1682c
:1026a000cb1803931b78db065b0f42d1614674683d
:1026b0004900611804910399049c49880a9d099373
:1026c00061539a4231d9049c590061180024089141
:1026d0000294012110e09f420bd0029d6f00049de7
:1026e000ed5b0795089d2f88079dbd4217d10131ed
:1026f000c9b2029d013502956d462f7aba42ead8d9
:10270000059d8d4204d9a54206d96118a94203db73
:10271000089b1b88099313000133dbb2d1e7079da7
:10272000bd42e6d20134e4b2e3e76946039b898cfb
:102730005980009b0b9901339bb2009363468c46f2
:0827400063449bb29c4690e744
:020000040000fa
:1027480010200000f0ffffff8f0000001020800025
:10275800f0ffffff9000000010202080f0ffffff37
:10276800900000001080a090f0ffffffd001000053
:1027780012305020f2ffffff11000000123050a06d
:10278800f2ffffff1301010010305020f0ffffffa0
:1027980010000000103050a0f0ffffff12010100f0
:1027a80011325220f1ffffff21000000113252a028
:1027b800f1ffffff2301010010325220f0ffffff5d
:1027c80020000000103252a0f0ffffff220101009c
:1027d80018335320f8ffffff31000000183353a0cf
:1027e800f8ffffff3301010010335320f0ffffff14
:1027f80030000000103353a0f0ffffff320101004a
:1028080014315120f4ffffff41000000143151a0a2
:10281800f4ffffff4301010010315120f0ffffffdb
:1028280040000000103151a0f0ffffff42010100fd
:102838000001020301010101020102020301020376
:020000040000fa
:10284800f7b5070001910b24002951d000284fd07b
:10285800294d03242b7a002b4ad00124042b47d07e
:10286800022403685b79013ba34241d8234e01f05f
:1028780005f93388a3433380214b1f60019beb602c
:1028880000f094fc80221f4bd205da67bff34f8f0c
:10289800bff36f8f0323b37201f0f0f80122737a4c
:1028a800802113437372184bc9051a70c023174a45
:1028b8005b00d150c722ff20144b920099583b6807
:1028c80000045b799b050340114801400b430f4905
:1028d8008b508022d2050a6000232b8000f01eff57
:1028e800061e07d1042328882b723400fff7cafb81
:1028f8002000febd2c72fbe7ac020020005800420d
:102908000400002004e100e0fb03002000e100e0f7
:04291800ffff00ffbe
:020000040000fa
:10291c0010b5294b1b78012b06d0284b1b78012bab
:10292c000cd0fff77bfc10bd25492648fff786ff2e
:10293c000028f2d1204b00221a70eee71f4b002228
:10294c001a70fef74fff002823d11f48fff772fec5
:10295c00002812d11d48fef7fffc002811d11c489d
:10296c00fdf7b6fb002810d11a48fef735f8002801
:10297c0012d0194b05221a700ee0174b02221a7056
:10298c00e8e7154b03221a70e9e7134b04221a707f
:10299c00eae7114b01221a700c4b1b681b787f2b3a
:1029ac0005d80e4b01221a70fff7c4f8b9e7024b99
:1029bc0001221a70f8e7c046090300200b0300201f
:1029cc00b13b0000fc0300204c040020cc03002091
:1029dc0020040020540400200803002007030020da
:020000040000fa
:1029ec00284b5a6852031b68db0c13439b029b0a4f
:1029fc00254a9363137d40210b43137500235375b4
:102a0c00110004228b691a42fcd11f491022cb6899
:102a1c001a42fcd01d4b00229a611a611c4b1d4ab4
:102a2c001a62190004224b681a42fcd1184b1a4a3c
:102a3c005a62190008224b681a42fcd1144a982396
:102a4c004121d15010005731402243581a42fcd03a
:102a5c000f4adc234021d15010009c3140224358b6
:102a6c001a42fcd00a4a8a235b004121d150100043
:102a7c001900402243581a42fcd0084b084ada612c
:102a8c007047c046206080000010004000140040d9
:102a9c00001c00400601010006210c00000800404b
:042aac0021004000c5
:020000040000fa
:102ab000f0b5c66885b007000d003000190001921e
:102ac0001c0000f0ebff011c030400d500210bb239
:102ad000039300230293ac420ad0611e89b23000f6
:102ae00000f0dcff011c030400d500210bb20293af
:102af000019bea18013a0023944209d0611c89b273
:102b0000300000f0cbff031c020400d500231bb2f1
:102b10006a461189641b9bb22403928999421bd394
:102b2000d01a80b2c31ac91889b20c2200f0a0fbd7
:102b30000e4bc01880b2019b0019022b06d9190058
:102b4000013989b280b2002200f092fb81b23800d4
:102b500000f0eafb05b0f0bd581a80b2511a4118d6
:102b600089b20c2200f084fbe5e7c04600f0ffffcd
:020000040000fa
:102b7000072802d8214b185c70470300103b052b37
:102b800004d81f4b181810380078f5e70300203bd5
:102b9000092b04d81b4b181820380078ece70300e9
:102ba000373b0d2b04d8184b181837380078e3e75b
:102bb00003007433dbb2092b04d8144b18188c387b
:102bc0000078d9e703005d33dbb2132b08d85a082d
:102bd00052000f49525a100adb07cdd4d0b2cbe7ce
:102be0002f30c3b20020132bc6d85a08520009490f
:102bf000525a100adb07bfd4d0b2bde7440400200c
:102c0000e80200202c040020ec030020cc0200206d
:082c1000700200208402002084
:020000040000fa
:102c1800f8b500f033ff0221204a13888b43138054
:102c280000f0ccfe1e4b1f4c1f4a188819882388b9
:102c380012685b00d1521d4b80b21b78012b02d069
:102c4800022b10d0f8bd23880133238000f066fde5
:102c5800002805d12088fff715fa04232372f1e72d
:102c6800e3689847eee70c210f22114b25881e6870
:102c780069437368002759188b7a1a40cb7a9a42ad
:102c880001d29b1adfb20621f8406943b3685b188a
:102c98005880022323722369e3e7c04600580042a4
:102ca80058580042ac02002008000020fb03002016
:042cb80004000020f4
:020000040000fa
:102cbc0070b5204b1b78002b04d01f4b1b78012bbd
:102ccc0003d070bd00f040f8f7e71c4b1b78002bcd
:102cdc00f7d1184d063510242000fff743ff28705c
:102cec0001350134e4b2162cf6d1124b1e00143609
:102cfc001c005d256d42ed1a2819c0b2fff732ff9a
:102d0c00e0740134b442f7d10a4d2e358c242000e6
:102d1c00fff728ff287001350134e4b2962cf6d168
:102d2c00074b1b78012b02d0064b01221a7000f0c6
:102d3c00e3fec6e794010020fa030020e70200201e
:082d4c00e0020020e602002075
:020000040000fa
:102d540070b51d4bad241c700a225a7000229a7063
:102d64000121d9701a7110205871ca3018735c731c
:102d740018259d73d97319745a748b359d747c3dd1
:102d8400585501355c55843c1a3d1d550134093da7
:102d94001d55013419552b315a542d326031995433
:102da4000b329854094c2168094800f0f3fe21685d
:102db400084800f0f5fe084b1b780848c0180121ac
:102dc40000f048fc70bdc04694010020f0020020d1
:102dd400c93500000d380000d70200205c02002035
:020000040000fa
:102de400f7b5c7681500380001930c0000f054fed5
:102df40029000600380000f04ffe331c864200d93b
:102e0400031c9bb20093ac421dd90135164eadb2e2
:102e1400ac420cd1019b002b04d0009bd808181a9b
:102e240083b20093009b9e42b6417042febd2900ce
:102e3400380000f031fe031cb04200d9331c0135c8
:102e44009eb2adb2e4e70134074ea4b2a542e1d983
:102e54002100380000f020fe031cb04200d9331cce
:0c2e640001349eb2a4b2f1e7ffff0000b1
:020000040000fa
:102e7000002934d00123002210b488422cd301242d
:102e80002407a14204d2814202d209011b01f8e7c2
:102e9000e400a14204d2814202d249005b00f8e77b
:102ea000884201d3401a1a434c08a04202d3001ba7
:102eb0005c0822438c08a04202d3001b9c082243da
:102ec000cc08a04202d3001bdc082243002803d018
:102ed0001b0901d00909e3e7101c10bc704701b5bc
:102ee000002000f079fe02bd0029f8d003b5fff7fd
:0c2ef000c1ff0ebc4243891a1847c046bf
:020000040000fa
:102efc00f0b506241e4b44431a68002093681c1935
:102f0c0063888b422cd02cd2c91a126889b2937860
:102f1c00402b00d149080120842921d80020052903
:102f2c001ed9cf250f261527a3881c009804800fc7
:102f3c0068431d1235407d431b11334040195b0023
:102f4c00c018344080b2052c0dd8d378094a9b06a2
:102f5c009b0f5b009b5a594389b288428041404287
:102f6c00f0bd591ad1e70130053c80b2e4b2eae772
:082f7c00040000207038000081
:020000040000fa
:102f8400f7b50c25c3684d439c46032382684b4325
:102f940055196c6863442d8964889f781b78641b79
:102fa400e41aa3b201930025436860461e88b54223
:102fb40001d10020febd8d4218d08378bb4215d1cb
:102fc40013787b33dbb2012b15d913899c465368e4
:102fd4005b889c450ad264461b1b04789bb2a342bf
:102fe40004d91b1b019c9bb29c4204d30135adb296
:0a2ff40003300c32dbe70120dce7bc
:020000040000fa
:022ffe00fee7ec
:020000040000fa
:1030000070b500282fd0194b1a7d0023002a26d135
:10301000164b1860596001321a75154b1b7edb0781
:1030200016d500291dd00023114c0726012507e0e5
:10303000c25c22850133227e2a420ad0994208d9f5
:1030400062683240012af3d15a00825a2285f1e7a0
:103050000023064a9360064b01229a75012318004b
:1030600070bd0b00f5e70023f9e7c046d001002052
:043070000014004206
:020000040000fa
:103074000021f0b5174b184a934208d30027174a8a
:1030840013685168002b05d1002903d1f0bd1970d4
:103094000133f1e7100095680c305c18002d16d050
:1030a4000b25ed1a5219a3420ad10b000322134037
:1030b4005a1e934189085918890040180200dfe715
:1030c4005d1cae5c1e702b00ede71f700133a34244
:1030d400fbd1f3e70000002014000020d40e000010
:020000040000fa
:1030e4008223db05802212031a601a610122512116
:1030f4005a5401315a5401310020585401315a5460
:1031040001315a541d391030585401315a54283958
:103114002a3019548e301a5401301a5401301a547a
:1031240001301a5401301a5401301a5401301a541f
:1031340001301a54b332995401329c3898540132f4
:083144009954013299547047bf
:020000040000fa
:10314c0070b500f027fb1348fff7daf9124800f0ce
:10315c00bffc00240f4d2100280000f051fc210081
:10316c00280000f0b9f90134a4b20a2cf3d10b4dac
:10317c0000240b4ee1b22a00300000f051fc013467
:10318c00a4b206350a2cf5d1064800f0c5fb00f0b8
:10319c0025fc70bdfc030020980200205801002083
:0831ac00cc03002020040020e8
:020000040000fa
:1031b400134b70b51b6808241b689a78402a15d0f5
:1031c40002200a24802a11d070bd0e490c400f2120
:1031d4000b401b0214401c4300f052fc50230a4dc8
:1031e4002b8000f04dfc2c610020ede71b79074a91
:1031f4000f2bead980235b011c431440ece7c04643
:1032040004000020ffefffff00580042fff0ffff23
:020000040000fa
:1032140010b5134b18780230c0b21870092808d8ba
:10322400104b1b780233dbb2132b0fd80d4a1370eb
:1032340010bd0a21fff71afec0b200f06bfc084c67
:1032440020780a21fff74efe2170e9e7054b0022a2
:103254001a70054b01321a70142000f077fce7e76e
:0c3264000a0300200303002009030020df
:020000040000fa
:10327000013210b5d2b2002906d1134b180010bd8f
:10328000013a4000d2b280b203b2002b01db002a27
:10329000f6d10bb2002b11da0023002aeed01cb2bb
:1032a000002ceadb5b00013a9bb2d2b2884203d326
:1032b000401a013380b29bb24908eee7013249005f
:0c32c000d2b289b2e5e7c046ffff000073
:020000040000fa
:1032cc00f7b50d001900070001921c0000f0e0fb9f
:1032dc0000260090ac4205d9611e89b2380000f07e
:1032ec00d7fb0600019b0020ed18013dac420cd22f
:1032fc000c2301346343fb185a681b8952889a4289
:10330c0003d9a1b2380000f0c3fb009b864202d95e
:0c331c00f618b0b2febdc01880b2fbe78e
:020000040000fa
:10332800802210b5c37952011c09081c914200d9aa
:10333800101c0f2180b2194012d028230139c9b2bc
:10334800013159430023884201d3401a83b28022b5
:1033580049005201511a89b20c221800fff784ff64
:10336800054a031c904200d9131c98b20c231c1b5d
:0c337800204180b210bdc046ff0f0000d5
:020000040000fa
:1033840000230e4a10b513600d4a13600d4a1360f2
:103394000d4a13600d4a13600d4a536213610133e1
:1033a400936000f050fb00f04efb0a4c0a4b9c4229
:1033b40000d310bd08cc9847f8e7c046fc020020b3
:1033c40098000020940000208c0000209000002031
:0c33d4009c000020c8000000cc0000009d
:020000040000fa
:1033e00030b5bff35f8f62b6104bc02080001a5813
:1033f0000f4d2a40c02109040a431a5004221a60c2
:10340000c322920098580b4c0440c0200002204375
:103410009850802292011a60c72080001a582a40d2
:10342000114319508022d2051a6030bd00e100e03e
:08343000ffff00ffff00ffff9a
:020000040000fa
:10343800114b124a1a60124a9a81c02292025a60ab
:103448001a00d369002bfcd10b4a136802210b43e5
:103458001360d369002bfcd10a4b00229a61da6110
:103468001a622c215a545a621a605a609a601a7564
:10347800da60da857047c046001400420401314022
:083488002bf6ffffd00100202c
:020000040000fa
:10349000062359430c23584310b5114c09186318df
:1034a0005888085398889a80588080b2824213d0f6
:1034b0000b5b984210d09a420fd0824206d99842b4
:1034c0000ad8101c9a4206d9181c04e0984203d36b
:1034d000101c9a42f8d380b210bd1000fce7c04621
:0434e00000020020c6
:020000040000fa
:1034e400030010b50b20002b16d01a680220148894
:1034f4008c4211d392789b68402a0ed106228d20eb
:103504004a4380009a1890800020062251430222e8
:103514005b1819780a431a7010bd803ad2b2012a96
:10352400f3d806224a4301489a18ece767050000dd
:020000040000fa
:10353400042808d00300223b072b0cd80b4b181887
:103544002038017001e00a4b19710a4b01221a70ec
:1035540000231800704701230200373a0d2af8d8d7
:10356400054b181837380170efe7c0462c040020cb
:0c3574004404002002030020ec030020af
:020000040000fa
:1035800010b5064c2378002b07d1054b002b02d039
:10359000044800e000bf0123237010bd2802002072
:1035a0000000000000000000044b10b5002b03d009
:1035b0000349044800e000bf10bdc0460000000001
:0835c0002c02002000000000b5
:020000040000fa
:1035c80010b50d4b1b78012b03d00c4b00221a7041
:1035d80010bd0b4b1878382803d9084b00221a70f5
:1035e800f6e7084b18180121fff706fd044a13787f
:1035f80001331370ece7c046fa030020e70200200d
:08360800ef02002094010020f4
:020000040000fa
:1036100010b50a4b98470a4b984700f0d9fa094b66
:10362000ff229343084a9360084b9847084b9847fa
:10363000084b984700f09cfafee7c0464f3900005f
:103640004f3900000000000000ed00e0853300006d
:083650004f3900004f39000062
:020000040000fa
:1036580070b504000d00002815d00c4a2c23d35c4b
:103668000020002b00d070bd00f02cf9074b9c61a6
:10367800dd6100221a622c2101205854da85044b9e
:1036880084329a75efe70020ede7c046d0010020ac
:0436980000140042d8
:020000040000fa
:10369c0070b504000e0015000c4b00221a70421d70
:1036ac000b4b1a70ad2000f061f9201dc0b200f078
:1036bc005df9300000f05af9012000f057f90020b4
:1036cc0000f054f9280000f051f970bdcd01002034
:0436dc00ee020020da
:020000040000fa
:1036e000002a17d04b1c984214d04b1e984211d080
:1036f00043189bb2012a02d142009b1802e0022a21
:1037000009d15b009bb2884207d902339bb20233d6
:1037100098b2800870474a00efe78842f7d2023b30
:02372000f4e7cc
:020000040000fa
:02372200fee7c0
:020000040000fa
:103724000d4a70b51068012502680c4914880622f8
:103734000b885a43a3420ad28668b65c06322e42ec
:1037440002d101339bb2f5e700200b8070bd00234a
:1037540001200b80fae7c04604000020ac020020e0
:020000040000fa
:1037640010b50d4908888b884a88c988c31a1bb2ca
:10377400521a12b2d9175818d41748401119614077
:10378400884204dbd817c01ac00f400010bd0120c6
:0c379400002afbdc0320f9e7dc00002029
:020000040000fa
:1037a00010b50a4b19680a4800f0f0f909490822d7
:1037b0000b691a42fcd100f057f9002000f07af9a9
:1037c000012000f081f900f041f910bdf402002061
:0837d000c93b00000024004089
:020000040000fa
:1037d8000b4b01221a8019000b691a42fcd1084bc5
:1037e800c02252001a80803aff3a1a6219001f322a
:1037f8000b691a42fcd1024b802252005a81704751
:043808000024004058
:020000040000fa
:10380c0010b50a4b1b780133dbb2142b09d0074ad5
:10381c001370064b1b780648c0180121fff716ffe2
:10382c0010bd024b00221a70f3e7c046d7020020ed
:04383c005c0200200a
:020000040000fa
:1038400010b50a4b06225a60fff74cfcfff7cef882
:1038500000f096f900f074f9fff7eefdfff7bcfffa
:10386000fff774fcfff7bcfd10bdc04600400041ef
:020000040000fa
:1038700007001300350090003f1c0b0503010203f5
:1038800004050607202122232425262728290809a4
:0e3890000a0b10111213141516172c2d2e2fc3
:020000040000fa
:02389e00fee743
:020000040000fa
:1038a00010b5074b988980b2064a50600649998145
:1038b0009b891368002b01d09168984710bdc046c2
:0c38c00000240040c0020020ff81ffff38
:020000040000fa
:1038cc00094b5b8b5b070dd0074b80221a76793a3c
:1038dc005a831b7e5b0705d5034b04211a8d1a7e78
:0c38ec000a42fbd17047c04600140042a5
:020000040000fa
:1038f80010b5074b1b78002b00d010bd0133044acc
:103908001370044a137001210348fff775fbf4e7ad
:0c391800e7020020ef02002094010020d4
:020000040000fa
:1039240003000b20002b0fd05b68002b0cd0002071
:10393400187058809880d880188158811873d8815d
:0a394400188258829882d8827047da
:020000040000fa
:02394e007047c0
:020000040000fa
:10395000074b1b78074ad05c0133dbb2142b02d033
:10396000034a13707047024b00221a70fae7c046f0
:08397000d60200205c020020d9
:020000040000fa
:1039780000b583b06b46d8710733064a0121117030
:103988001800fff739fb034a1378012bfcd003b06a
:0839980000bdc046e70200205b
:020000040000fa
:1039a000064b1878064b1b78984202d3c01ac0b257
:1039b00070471430c01ac0b2fae7c046d7020020e0
:0439c000d60200200b
:020000040000fa
:1039c4000222074b997ac9b2114202d0987a024373
:1039d4009a720122114202d0997a0a439a7270476c
:0439e4000058004245
:020000040000fa
:1039e80000200121054b49425a1cd077044a18721d
:1039f800d8602933118018707047c046dc00002059
:043a08000c0000208e
:020000040000fa
:103a0c000b2300280ad003681a8802238a4205d3a4
:103a1c0006235943012382688b54002318007047f6
:020000040000fa
:103a2c000b23002809d0002a07d00c234b438168b4
:0e3a3c00c91801230b7000234a601800704760
:020000040000fa
:023a4a007047c3
:020000040000fa
:103a4c00054a138802210b431380110002220b69d3
:0c3a5c001a42fcd17047c0460024004014
:020000040000fa
:103a6800054a138802218b431380110002220b6937
:0c3a78001a42fcd17047c04600240040f8
:020000040000fa
:103a840001220449cb7a13401a4200d17047cb7a01
:083a9400fae7c04600580042a9
:020000040000fa
:103a9c000c2359434018436802895b8800209342e9
:083aac0001d99b1a98b2704782
:020000040000fa
:103ab400034b9861190008220b691a42fcd1704724
:043ac400002400409a
:020000040000fa
:103ac800034b1862190020220b691a42fcd1704777
:043ad8000024004086
:020000040000fa
:103adc000b23002802d0024b1860002318007047fb
:043aec0008000020ae
:020000040000fa
:103af000034b28331878431e9841c0b27047c04624
:043b0000dc000020c5
:020000040000fa
:103b0400034b0022190028310a701a747047c0460a
:043b1400dc000020b1
:020000040000fa
:103b1800034b00215a5e002a01db80181880704789
:043b28000c0000206d
:020000040000fa
:103b2c0003b47146490840004900095a49008e44c3
:043b3c0003bc70470f
:020000040000fa
:103b40008423db05014a1a627047c04604c20000a4
:020000040000fa
:103b5000024b1a88801818807047c0461a0100204e
:020000040000fa
:103b600003001218934200d1704719700133f9e72e
:020000040000fa
:0e3b700010b50020fff764fefef7d0fefce764
:020000040000fa
:0c3b8000014b84225a6070470040004155
:020000040000fa
:0c3b8c00014b186099607047c0020020d7
:020000040000fa
:0c3b9800014bd86019617047d00100207b
:020000040000fa
:0c3ba400014b586299627047d00100206c
:020000040000fa
:0c3bb000014b01221a7070470b0300202b
:020000040000fa
:0c3bbc0010b5fff701fffff729f810bd5e
:020000040000fa
:083bc80010b5fff723fb10bd4f
:020000040000fa
:083bd00010b5fff74ffa10bd1c
:020000040000fa
:043bd8007047c0462c
:020000040000fa
:0200000400807a
:04400000770800003d
:020000040000fa
:0200000400807a
:044004000000ffffba
:00000001FF
