:020000040000fa
:10000000f07f0020fd3f0000d7390000833d000055
:1000100000000000000000000000000000000000e0
:10002000000000000000000000000000ef2d0000b4
:100030000000000000000000ef2d0000ef2d000088
:10004000ef2d0000ef2d00007d430000ef2d00009c
:10005000ef2d0000ef2d0000ef2d0000ef2d000030
:10006000ef2d0000ef2d0000ef2d0000ef2d000020
:1000700031270000ef2d0000ef2d0000ef2d0000d4
:10008000ef2d0000ef2d0000ef2d0000ef2d000000
:10009000ef2d0000ef2d0000ef2d0000ef2d0000f0
:1000a000ef2d0000ef2d0000ef2d0000ef2d0000e0
:0c00b000ef2d0000ef2d0000d1470000f4
:020000040000fa
:1000bc00f8b5c046f8bc08bc9e467047dd3f000052
:1000cc00f8b5c046f8bc08bc9e467047b53f00006a
:020000040000fa
:0800dc00302c000001000000bf
:020000040000fa
:1000e400f0b5030095b00b20002b00d174e11a6821
:1000f4005e680b92002e01d100f062fc9b680193b4
:10010400db680293002b01d100f05dfc019bdb79dd
:100114001093cf2b01d900f05afc13780d930123cf
:100124000d9a1a40019b0a921f889b780393002a18
:1001340016d10c203b008446039979188cb28b426b
:100144005bdb002a0cd10c208446019b99799b88a7
:1001540059188cb28b425bdb002a01d100f03afcc7
:100164003c000025039b0097fb180c930c9b9c42be
:1001740059db019b00259b880593019b9b79089380
:10018400059b1c00a4460693089b63440f930f9b96
:100194009c4256db009b039a3900029803f00efd43
:1001a400069b0790089a0599029803f007fd019ba6
:1001b4005b890e936b469b8b834200d2031c0e9a81
:1001c4009bb2934201d200f005fc009b039a3900d4
:1001d400019802f03fff0d9b009adb06db0f1193a1
:1001e4007b1c05009a4200d8f8e00023099304938d
:1001f4001300013b3c00139348e065465d430298bd
:100204002d5c852d01d12300012201339bb296e799
:1002140065465d4302982d5c852d01d123000122a2
:1002240001339bb296e72100029804f0e5f900b28d
:10023400002803dda84201dd050000940134a4b2c6
:1002440094e72100029804f0d7f900b2002803ddf6
:10025400a84201dd050006940134a4b297e7230007
:10026400039a3900029803f0a9fc049b129083427c
:100274000ad2119b22000099019803f03df900284d
:1002840002d0129b099404930134a4b2139b9c42a0
:10029400e5d30c9b009a013b9a4205d2941c0c9b1b
:1002a400a4b29c4200da9de0049b0e9a934200d2d1
:1002b400afe0099b039a3900019802f0cbfe0323b7
:1002c40003900c93089a069b0599019802f0c2fecc
:1002d4000d9b069a9b06db0f0d93059b0090013343
:1002e4009a4200d8b0e0002309931f001300059c34
:1002f400023b1293129b9c4200d28fe00f9b069a02
:10030400013b9a4205d2941c0f9ba4b29c4200da92
:100314009ee00e9b9f4200d2afe0099b089a05998c
:10032400019802f097fe049a02903b1c974201d276
:100334006b461b8a9bb2049304230c9a1a430592be
:100344000a9b0122002b00d0c1e069460988bd4bfd
:10035400f18069460988327031816946098875805f
:1003640099836946898b0598718169460988b580a6
:10037400d980694609881d831981694609881d80c9
:10038400598106215d809d80084200d07ce06b4647
:1003940028229b181b7833736b461b8df382002035
:1003a400b288a84b1a83328a5a8332899a83b28ad2
:1003b400da83059bdb0702d581230b9a137006238e
:1003c400059a1a4208d03022059b13401a000b9b51
:1003d4001b7813430b9a137015b0f0bd00230993d7
:1003e400049356e72300039a3900029803f0e6fbce
:1003f400049b129083420ad2119b22000099019817
:1004040003f07af8002802d0129b09940493013473
:1004140045e7002303950493112352e72300089a28
:100424000599029803f0cafb1190874209d20d9beb
:1004340022000699019803f05ff8002801d0119f6b
:1004440009940134a4b255e7002309931f0055e72a
:100454002300089a0599029803f0b0fb1190874293
:1004640009d20d9b22000699019803f045f8002853
:1004740001d0119f0994013446e720230c9a1a43b2
:10048400009b059202935be732736a469289694640
:10049400f2816a469289098a32826a461289f18215
:1004a40072826a461289b2826a4692899a816a463f
:1004b4009289da816a4692891a826a4612895a8234
:1004c4006a4612899a826a461289da8267e7019b30
:1004d40037005b7ab4460893109b5a481b099a402c
:1004e400013a93b20022069363461b78db0768d473
:1004f4000100012320315b42535201002431535245
:100504000c2302329c44042aeed10324089b05994f
:1005140023401c000623327b194200d173e16b4651
:100524009b8b73816b461b8af382464b002a00d057
:1005340099e01b8c5a1b9d4200d9ea1a039992b286
:100544008b426fd35b1a9bb271889a426dd9220099
:10055400039803f0b9fdf58170803a4d009aab8c95
:100564009a426bd89a1a029992b28b4270d35b1a50
:100574009bb2f1889a426ed92200029803f0a4fd3e
:100584006b461b88f08073820123f28933736a837c
:100594006a84738a3282eb83eb84b382aa81ea8110
:1005a4002a826b82ab82eb82002401223b781340c7
:1005b40000d095e17b810134e4b20c37022cf4d1f4
:1005c400ede663469988204bd45a0b1ba14200d216
:1005d400631a9bb2a1421bd9069ccb18a34200da32
:1005e4009cb21a4bd45263461989164b1c33d45a05
:1005f4000b1ba14200d2631a9bb2a1420dd9069ce7
:10060400cb18a34200da9cb20e4b2433d45277e7c2
:1006140000248b42e5d2cb1ae2e700248b42f3d2ca
:10062400cb1af0e70399cb1a8de72200280003f0d8
:100634004bfd6b469b897080f3818ee7009ad21a3a
:1006440091e7c046640200207c020020840200205e
:100654000299cb1a8ce72200009803f035fd6b4613
:10066400f0801b898fe7f18932780491718a0691b1
:10067400002a53d15b8c039a934238d39a1a92b2cc
:100684009d4237d85b1b9bb29a4235d96b462200f8
:1006940028009b890499738003f016fdbe4df081f8
:1006a400eb8c029a93422cd39a1a009992b29942f3
:1006b4002ad85b1a9bb29a4229d96b4622001b891d
:1006c40006990098f38003f0fffc012372883370cd
:1006d4002a832a84f3887082b280ab833381ab840b
:1006e4002a806a80aa80eb802b816b815ce7039a65
:1006f400d21ac4e7eb1ac6e775802200049903985e
:10070400cae7029ad21ad0e70099cb1ad2e76b460d
:100714001b882200f38006990298d4e71b8c581b8f
:100724009d4200d9e81a9c4a0399528c80b28a42ad
:1007340045d3511a89b24018039980b28b4241d3f0
:100744005b1a9bb2954240d8521b92b29b189bb243
:100754007188220098423ad9039803f0b5fc22002c
:1007640070802800049903f0affc8b4a0099938ca5
:10077400f081581a994201d90099c81ad28c029969
:1007840080b28a422bd3511a89b24018029980b29e
:100794008b4227d35b1a00999bb2914225d8521af7
:1007a40092b29b189bb2f1882200984220d90298f9
:1007b40003f08afc22000699f08000981fe0039958
:1007c400891ab7e70399cb1abbe7aa1abde7280031
:1007d40003f07afc2200708004990398c3e702991d
:1007e400891ad1e70299cb1ad5e700998a1ad7e773
:1007f400009803f069fc2200f0800699029803f047
:1008040063fc7082d0e6002a0fd16b469b8b718803
:1008140073812200280003f057fcf18870802200c5
:10082400009803f051fcf080bee63378002b0bd126
:100834006b469b8bf1892200f382280003f044fc71
:10084400718af0812200b8e753490b8c9d422bd862
:100854005b1b9ab2898c009b8b4227d8c91a89b238
:1008640052184d4992b24b8c9d4222d85b1bc98cc5
:1008740000989bb288421ed8091a89b2591889b2c5
:100884008a421bd9f1892200280003f01dfc718ad9
:10089400f0812200009803f017fc6b469b8b70825a
:1008a400f382002333707fe6eb1ad2e7009b591ad8
:1008b400d5e7eb1adbe70098411adee771882200de
:1008c400280003f001fcf18870802200009803f0f6
:1008d400fbfb6b469b8bf08073810023337363e6d1
:1008e4003b89bd880093019b7a885b7adb0604d53b
:1008f4000021200003f044fa0200b9883b788a42c0
:1009040037d2180704d40198891a007a814206dd87
:10091400ba80042293431a000a2313433b70019bb9
:10092400fa885b7adb0604d50121200003f028fa5b
:10093400020039893b788a4230d2980604d401985f
:10094400891a007a814206dd3a81102293431a0003
:10095400222313433b70bb88ab4200d02be63b8978
:10096400009a934200d026e602223b7893433b70e0
:1009740021e658070ad40198511a007a8142cedd43
:10098400ba80082293431a000623c6e7ba800822d5
:1009940093430622c1e7c04664020020d8060ad465
:1009a4000198511a007a8142d5dd3a81202293437d
:1009b4001a001223cde73a81202293431222c8e77a
:1009c4000b200596f5e40b20029b0593f1e402202d
:1009d4000023fae700200b9b05901870307070819b
:0809e4003073f082e5e4c04627
:020000040000fa
:1009ec00f0b585b00390039b0b20002b00d1fde0ec
:1009fc005d68904b69691d60ab6808001a78002926
:100a0c0000d008788c4c012321002a311a40097837
:100a1c0003405e00164391423dd1111e00d00321cc
:100a2c0020002a30027042789a4238d11a1e00d027
:100a3c00032220002a304370880080497031091845
:100a4c00885c032e2fd1a21cd37f002b09d101234c
:100a5c00d37722002c321370774a931cdb7f002b48
:100a6c002dd02a68e968128809885208490852185a
:100a7c00e28529696a68098812884908520852185f
:100a8c002286032800d979e06d4e03f03ffee70182
:100a9c002800b500db00514251410131c0e75a42f8
:100aac005a410132c5e7220000232c321370644aec
:100abc000021525e0132cfd1a21cd377cce7012e9c
:100acc0006d129680988d185696809881186d8e713
:100adc00022ed6d1e9680988d1852969f5e7002667
:100aec0023002000323331000c2214301e70267289
:100afc00e66003f02ffe230033331e70230008330f
:100b0c002674de77e78d268e278066800235e97f96
:100b1c0010208ab2974200d2122080235b005b1a0d
:100b2c009f4201d901210843964201d20822104369
:100b3c00b34201d20423184301f01afb23003433cf
:100b4c001870631cdb7f002b15d0e38e9f424fd3b4
:100b5c00ff1a394abfb2138f9e424bd3f61a354b4c
:100b6c00b6b21b680133db7f9f4201d89e4202d98b
:100b7c00531c0022da770022314b1a802e4ca37fb3
:100b8c00012b01d1237f2374237c01221900914373
:100b9c00f02900d073e121000831c97f114203d044
:100bac002200012128321170a21cd27f002a12d0ff
:100bbc00220028321278002a0dd05a1e422a00d95f
:100bcc0061e1043323743f22237c9343c02b02d076
:100bdc000022a31cda77039b08341d6803f06efd1a
:100bec0028700020237a6b70e37fab7005b0f0bdea
:100bfc00df1baee79e1bb2e7e38d0022e386238e5c
:100c0c002387230029331a70637f93420ad0a823c9
:100c1c00237420000c221430002103f09bfd0023d0
:100c2c003380abe7202001f0a3fa23003433187093
:100c3c00efe7c04610000020400100208c2c000083
:100c4c000c000020002b29d02b681988eb681b881e
:100c5c00994200d2b9e0c91a6b682a691b881288bc
:100c6c0089b2934200d2b2e09b1a954a9bb217000c
:100c7c002c373878012800d9abe0cb1810000024b1
:100c8c00938702233a3004703b708d4c237c002bed
:100c9c0004d0c02001f06cfa343420700022b35e12
:100cac00884a874c1268517e8b4200daa3e02100ff
:100cbc0033310978002900d09de026000125293622
:100ccc0037782f4200d096e0802001f051fa2300b3
:100cdc003d43343318703570e38d268801936b4691
:100cec009b88a380238e02936b461b89e380019b18
:100cfc00b34200d2ace09e1b714bb6b25d88029b36
:100d0c00ab4200d2a7e05d1b6e4badb21b68db7f24
:100d1c009e4201d89d4210d9270033373b78002bd7
:100d2c000bd103f04ffa030030201843c0b201f08e
:100d3c001ffa0123343420703b70614c2300333391
:100d4c001b78002b00d119e75e4b5f4f1b6800220c
:100d5c00b95eda7e914200db10e71a7fb24203d310
:100d6c005b7fab4200d309e703f02cfa0200f028ba
:100d7c001ed0200032300378002b0cd025005021df
:100d8c00343511432d78c9b28d4204d1217a013bff
:100d9c0001392172037050201043c0b201f0e8f900
:100dac00230022003433323218701378013313705d
:100dbc000022bb5e013301d000233b806b469b8835
:100dcc0023806b461b896380d8e6591a44e7d31af3
:100ddc004be7022800d058e70635cb18918fea7ff5
:100dec009bb2881883425adc9a18914200dc4ce77b
:100dfc000121494254e0d17e314d8b420ddb02265c
:100e0c0032490f78374208d1a02001f0b1f92f4bad
:100e1c0034353e4328701e705ee7927e934200dab2
:100e2c005ae72b0033331f78002f00d054e72e00e5
:100e3c0029363378032b00d04ee7902001f098f937
:100e4c000122214b34355242287037701a8043e707
:100e5c00019bf61a50e7029bed1a55e70023f25e50
:100e6c006b7e9a4200dc89e6802001f081f9230038
:100e7c003433187000230134e377013bd0e6002ba8
:100e8c0000d08de690e60f2219009143902901d1f4
:100e9c00103397e6d02b00d095e6d42392e60121af
:100eac0020003a300278a3875218d2b20270c123c4
:100ebc00012900d0c0232374014b0833da77e4e610
:100ecc0040010020100000200c00002069010020cf
:020000040000fa
:100edc008c0200201c0000000000000024030020f5
:100eec000c000000000000008c00002064000000da
:100efc000000000078030020030000000000000048
:100f0c0054030020040000000000000058030020df
:100f1c000400000000000000770300200100000026
:100f2c00000000003a030020010000000000000057
:100f3c00c002002014000000000000004403002048
:100f4c0006000000000000003b0300200100000030
:100f5c0000000000f8010020390000000000000033
:100f6c004a03002001000000000000004b03002099
:100f7c0001000000000000005c03002004000000e1
:100f8c0000000000520300200100000000000000df
:100f9c003e040020010000000100000001000000e0
:100fac00530300200100000000000000310200206b
:100fbc0001000000000000003202002001000000cf
:100fcc0000000000300300200a00000000000000b8
:100fdc004c0300200600000000000000d40200209a
:100fec001400000000000000e802002014000000c3
:100ffc00000000003302002001000000000000008f
:10100c00a00400200a0000000100000005054014a7
:10101c00140a000a00080000b804002008000000b0
:10102c0001000000020000300003010060040020f9
:10103c000e000000010000001464461e280014324b
:10104c0000010202969600007103002001000000ce
:10105c0000000000720300200100000000000000ee
:10106c00730300200100000000000000800100203c
:10107c003c00000000000000bc0100203c0000000f
:10108c0000000000140000207800000000000000a8
:10109c003c03002008000000000000007403002046
:1010ac000300000000000000a8020020180000004f
:1010bc000000000070030020010000000000000090
:1010cc006003002004000000000000007b030020ef
:1010dc000100000000000000fc02002014000000d1
:1010ec00000000007c030020010000000000000054
:1010fc007d0300200100000000000000d804002047
:10110c00030000000100000000010200d0040020d8
:10111c0006000000010000000a0080300002000000
:10112c008003002078000000010000000000000097
:10113c000000000104000204000000000000200078
:10114c00040002040000000000004000040002043f
:10115c0000000000000000800400020400000000f9
:10116c000000004004000204000000000000002009
:10117c00040002040000000000000010040002043f
:10118c000000000000000002040002040000000047
:10119c000080000004000204000000000040000079
:1011ac0004000204700400200c0000000100000088
:1011bc00d004002080030020bc010020200400206b
:1011cc001e000000010000001401011401011401b3
:1011dc000114010114010114010114010114010194
:1011ec001401011401010000ac0400200a000000ed
:1011fc00010000000a0001000100140514010000a8
:10120c004004002010000000010000003c030020fe
:10121c00ac04002014000020200400207c040020da
:10122c000c000000010000000a000300d4040020a0
:10123c00d8040020c00400200800000001000000b9
:10124c00880400207c040020880400200c0000008e
:10125c00010000000000000080010020bc01002003
:10126c00f80300202800000001000000ac02002060
:10127c00b0020020a8020020b8020020bc0200200e
:10128c00b4020020081464461e2800143200010227
:10129c0002960000c80400200800000001000000b5
:1012ac0074030020f80300205004002010000000fc
:1012bc0001000000050005000000058103133c003f
:1012cc0014000020940400200c0000000100000019
:1012dc0070030020a80200205004002034020020db
:1012ec0030000000000000003f040020010000005e
:1012fc000100000001000000100300201400000099
:10130c0000000000000000200c00000000000000a5
:10131c007e0100200200000000000000640200209a
:10132c0028000000000000007e03002002000000e6
:10133c000100000001f00000400100203e00000010
:10134c00000000000c00002008000000000000005d
:10135c00640300200400000000000000f0000020e6
:10136c005000000000000000680300200400000092
:10137c00000000006c0300200400000000000000ce
:10138c000000000000000000444444444444444431
:020000040000fa
:10139c00f0b587b00090009b0b20002b00d1e2e150
:1013ac00002603275b68049602931b88019605931d
:1013bc000396049b059a93421ed1009b1a681378de
:1013cc0059b200290bda0820002101268446049c1e
:1013dc0088b2844200d9ffe07f210b401370039b3d
:1013ec00002b00d009e1019801231178002800d1cd
:1013fc005be10b4313705ae1009bb5009b685d19d0
:10140c001e236a681178194001d001232b702b78a8
:10141c00042b73d00ad8022b2ed043d8012b23d007
:10142c00049b033601339bb20493c2e7852b00d196
:10143c0082e0862b00d1a9e0072bf1d129895388b2
:10144c0099425fd9c91a009b0298db6840799b5d71
:10145c0089b20341dbb28b4254d86b78002b69d133
:10146c0001232b701770dbe703930029d8d10223db
:10147c002b7008236b70d3e76978002910d0528841
:10148c00042904d92a810139697001237ce02b8954
:10149c009342f8d002d9013b2b81f4e70133fbe7ef
:1014ac002f70bde7298953889942b9d0009ad26828
:1014bc0010d9cb1a0299925d49799bb20a41d2b2ea
:1014cc009a42add8029b1b79002ba9d007222a7017
:1014dc006b70dae792195b1a11789bb299429fd81c
:1014ec009378002b05d00499009802f010f900288d
:1014fc0096d104232b70029b9b78e9e729895388aa
:10150c00994202d92f700023b4e7009a5b1ad26873
:10151c009bb2921911789942f4d29378002b06d091
:10152c000499009802f0f3f8002800d078e76b7863
:10153c00002b47d0013bcbe7029b00991b7a096833
:10154c000b7128895388984207d986232b70029bec
:10155c009b786b700123019316e0009a1b1ad268da
:10156c009bb291190a784978140001310c41012180
:10157c00121bd2b201919a4200d251e786232b70f2
:10158c00029b9b786b700b00039349e72889538867
:10159c00984209d96b78002b01d12f7001e0013be7
:1015ac006b70012301933be7009a1b1ad2689bb224
:1015bc0091190a784978140001310c41121bd2b2ee
:1015cc009a4204d285232b70029bdb78e8e76b7878
:1015dc00002be2d0013bbce70c2500984d43806802
:1015ec0045196f683878304205d164462d78a5438b
:1015fc0001d0304338700131e9e6029b597a002959
:10160c0000d1f0e6802310785b420343137001296c
:10161c0000d0e8e600218bb20393049b88b283428e
:10162c0000d8e0e60c20009b48439b68082518185e
:10163c00029303781c00ac4315d0852b01d0032bef
:10164c002ed10325009bdf682b004b43fb189b78a6
:10165c009c46002b07d000231e000595049c9c4241
:10166c0008d8002e1cd1012540680378ab430370c9
:10167c000131d0e7039c9c420fd00c255d43029caa
:10168c002d5d042d01d0862d07d1059d5d437d195f
:10169c00ad78654501d10126049b01339bb2dde792
:1016ac000123406805782b43e1e799431170528878
:1016bc00584b11001b88c8318b4251d99b1a9bb2d5
:1016cc009c466346c82b4dd96346c83b9bb29c468f
:1016dc00009b1b685a88c8325a801a79002a00d09d
:1016ec0070e05a79002a01d0013a5a719a79002a8d
:1016fc0001d0013a9a71009a50688679002e07d071
:10170c005a79002a04d1078891b28f4234d85e717d
:10171c00c579002d07d09a79002a04d1068891b298
:10172c00b1423cd39d71009b5b68da78002ac8d02b
:10173c001f880c23002103207b4302938bb2bb42f6
:10174c00bfd20c22009b4a439b689a181578852db2
:10175c0004d15578002d38d0013d55700131ede79d
:10176c00934202d3002007b0f0bd2b495918891ab7
:10177c00c829f7d9013ba1e70c21009c5143a4686f
:10178c0061180d78032d01d0082d06d14c680d89f8
:10179c006488ac4201d901350d810132b4e70c21ca
:1017ac0000985143806841180878032801d0082814
:1017bc0006d14c6808896788874201d201380881b4
:1017cc000132ace7013a1a71ade70124050014703f
:1017dc0052684d431070009ad2685519ad78002d9f
:1017ec00bcd0029c02321c1901920394039a9342be
:1017fc00b4d0019a1678ae4206d101225e683478d4
:10180c00144201d01a703070019a0c3303320192d9
:0c181c00ece7c0467e010020ffff00004a
:020000040000fa
:101828000322f0b5a94b89b01b7a0592002b14d07e
:10183800a74b1b6803931b6804931b880693a54b4f
:101848001b6807930023029305936b461a89069b2e
:101858009a4205d302229d4b1a72059809b0f0bd31
:10186800029b07995b00cc5a062302994b430399c4
:101878008968cd180c2302992e784b430399f606f4
:101888004968760fcb180193db7a042e00d966e1fc
:10189800300002f03dff0500130046012701da0081
:1018a8000f21019a927a0a40934201d99e1af6b200
:1018b80034416c80029b01330293c6e71c41864a7f
:1018c800a3b26b80af88934217d9844a9b18320021
:1018d8009bb204998978402914d15b08161e13d14c
:1018e8007f4a002697420fd181232b700e23059340
:1018f8002b785a0623d501232ee0774ad31a9bb2b8
:101908000022e6e7002aebd1042bf1d90f24b90411
:101918003a123811890f224020402740002e3ad031
:10192800cf2b01d9002966d1152b6ed9002a67d192
:10193800002291426bd00139c9b20a2267e05bb23a
:10194800002b0adb0322049bdb781340934208d167
:10195800ff23019a137211232b70bf04bf0caf80b1
:10196800a8e7022b07d10f22019b5b7a9343019ac8
:1019780053720923f0e7012bbdd10f22019b5b7a3b
:101988001a4030231343019a53720d23e4e70131bf
:10199800cf3bc9b29bb2cf2b01d90329f7d1152b65
:1019a8000dd90f2a06d10f2203290ad00131c9b255
:1019b800052206e00132153bd2b29bb2efe70f2aaf
:1019c800f1d0022b11d90f280ad10f2a00d1c7e074
:1019d8000132d2b2052003290bd0022bdbd825e037
:1019e8000130023bc0b29bb2ebe70f28edd00329d0
:1019f8001cd10321f1e70139cf3bc9b29bb28fe774
:101a0800013a153bd2b29bb28ee7002a90d0022b46
:101a18000ad9002803d1002a10d1100006e00138a5
:101a2800023bc0b29bb2f2e70028f4d009038cb2a3
:101a38001202144327430001074390e7013ad2b248
:101a48000a20022b00d96be7f0e71c41019ba4b2e6
:101a58001f7a01200023ff2f14d17f23019a6c8065
:101a680013722b78012b00d024e7ff33ff339c42fd
:101a780072d91a4be418a4b2052c00d81ae74523ea
:101a88002b7017e73900d9400026014201d11e000a
:101a980008230133dbb2072bf4d92100100001f031
:101aa800b5fd002804d00123b3401f43019b1f72da
:101ab8000123002e08d0013ef6b2b340019a127af3
:101ac8009a43019b1a72cce72b70cae710030020d7
:101ad8000400002008000020ff01000001feffffb5
:101ae800ff3f00001c41019ba4b25f7a3e09032e10
:101af80015d02100100001f089fd00280ad1013617
:101b080001232b700f2336011f40019b3e435e7259
:101b18006c80a6e7002ef3d0013ef6b2f2e702266b
:101b2800f0e71c410f26019ba4b25f7a3e4011d01a
:101b38002100100001f06afd002806d1013ef6b22e
:101b480001232b700f239f43dfe7032ef8d00136c4
:101b5800f6b2f7e70126f5e7044b1c1b8be7fee717
:101b6800032901d0100038e7170056e7ff010000ed
:020000040000fa
:101b78000023f0b506001500afb005910193059953
:101b88000b78002b00d10fe101235b420a930eabc7
:101b980000240c93802309940b940d930b5d002b68
:101ba80001d0252b2ad1002c06d02200300002f0cb
:101bb80075fc059b1b190593059b1a78252a00d0ef
:101bc800e7e0013302930593022310219c4608277e
:101bd800059803782b2b1bd025d8202b1bd0232b23
:101be8001dd02a2b2ad002f0affa0b90059b1a7849
:101bf800303a092a33d801330593f7e70134cde7a2
:101c08000122099b80180393134309930590dfe78a
:101c18000423099a0ee0099b03933b430be0099bbd
:101c280003930b4307e02d2bead0302bd9d1624622
:101c3800099b0393134309930130e7e72b680130ad
:101c48001a1d1b6805902a600b93002b07da099a66
:101c58005b420392012203990b934a400992099b24
:101c6800da0702d5022293430993059b1a782e2a94
:101c78000ed10022581c0a9205905a782a2a28d197
:101c8800023305932b681a1d1b682a6003930a9375
:101c980005a802f025fb059b0700187802f073fde4
:101ca800692800d183e035dc632800d1d6e01bdc4d
:101cb800252800d1dfe0612859d0252306aa137012
:101cc800029b0593002309930b93013b0a9302336c
:101cd800b2e002f039fa0a90059b1a78303a092adc
:101ce800d6d801330593f7e7642860d06728e4dc89
:101cf8002a00390006a802f094fb002800d1a9e0c8
:101d0800059b09a95a1c05921b7806aa300002f007
:101d180079fd3de0702800d17de016dc6e2800d109
:101d280091e06f28c9d12b000022390006a801f0e4
:101d3800eff9002800d18de0059b06aa013309a917
:101d48003000059301f00cfe22e0752840d0782879
:101d58004fd07328b1d1802f00d07be0059b2a6833
:101d680001330593131d2b601268002364e02a00d9
:101d7800390006a802f055fb002800d16ae0059b4f
:101d880009a95a1c05921b7806aa300002f03afdf0
:101d98002418019b1c19a34200dc74e04f223b4b22
:101da8001a6001235b42019301982fb0f0bd2b000c
:101db8000122390006a801f0abf900284ad0059b9a
:101dc80006aa013309a93000059301f000fadfe7fc
:101dd8002b000022390006a801f09af9002839d012
:101de800059b06aa013309a93000059301f09aff63
:101df800cee72b000022390006a801f089f9002857
:101e080028d0059b5a1c05921b7806aa09a9300000
:101e180000f0dafdbce72b000022f02106a801f053
:101e280077f9002816d0059b079a01330593069b7e
:101e3800134306d1164a163209a9300002f040f8b9
:101e4800a6e77823e1e7019b39001a1906a82b00b9
:101e580001f0f2fd059b013305939ae7802ff9d134
:101e6800059b013305932b681a1d1b682a6006aa77
:101e780013700123e0e7802fecd1059b06aa0133fc
:101e880005931070f5e7019479e6c0466c030020cd
:041e9800b045000051
:020000040000fa
:101e9c00f8b5ce46474680b5a14b1b78002b34d104
:101eac00a04ba1494722895c463a100088409870a3
:101ebc009e49c87bd87009781971994b1a709c4b44
:101ecc0098789c4a507159781171002414701b78c1
:101edc00002b05d002341470974a90701370517017
:101eec00964b1b78db0700d49de0954b5b681a780a
:101efc00d20700d491e01b7bdb0700d48de08d4a28
:101f0c00137804210b43137092e08e4b1b78002b3b
:101f1c00d5d0844b9978844a4723d25c463b934076
:101f2c00dbb28b4227d00723012401e0013b72d3a3
:101f3c00d8b222009a400a42f8d0031c062800d9d5
:101f4c000623d9b201228a4076498a70764a472103
:101f5c0053540c3153540c3153540c3153540c31e5
:101f6c005354d372d375543953540c3153540c31dc
:101f7c00535401f02bfd6b4bdb786c4ad27b9a42ad
:101f8c0005d06a4ad373937453751376d376654b25
:101f9c001b79664a12789a4205d0644a1370d37042
:101fac009371537213735f4b5b7a654a9168c8796e
:101fbc000209934208d00f220240ca71604a91680c
:101fcc001b01ca791343cb715f4b5b685f4a117875
:101fdc005976517899769178d976d1781977117993
:101fec005977517999779179d977d07920215854ab
:101ffc00107a01315854507a01315854907a013189
:10200c005854d07a01315854117b252299544d4b98
:10201c0000221a7053e708008fe7464a1378012113
:10202c000b43137004e0434a137801218b43137064
:10203c0047490a783f4803781343037010320a70fb
:10204c005b0722d543490b681b885b08ca6812885a
:10205c0052089b184a68128852080969098849086d
:10206c005218010018094870100988701b010f20c4
:10207c0002401343cb70384c384839490022394b55
:10208c0098467c239946c44615e032490b681b8858
:10209c00284a1809507049680888010991701b0179
:1020ac000f2101400b43d370e5e76346d554013251
:1020bc00023402300c31d3b2042b0bd88b6f5b88fb
:1020cc0023804d464e5b06800025b342edd99b1b09
:1020dc00ddb2eae70d686e8826808d8805800027c2
:1020ec00ae4201d9761bf7b2454657550133dbb2e8
:1020fc00092bdcd91c4b1b79db0709d401f064f9e3
:10210c000e4b1a78194b1a700cbc90469946f8bdb8
:10211c0001f05cfc144a137901218b431371ede738
:10212c0031020020a00400208003002020040020a5
:10213c00740300204c03002078030020700300205f
:10214c009404002033020020c80400206004002006
:10215c0053030020f8030020d4020020e8020020e2
:10216c00dcffff1f30030020b804002032020020e7
:020000040000fa
:10217c00f7b5964b1a7a032a04d9013a1a72da681f
:10218c00120ada6004001a7a00219446d200d2b204
:10219c009440da6814431a7cdc60f02a19d08c4e17
:1021ac000c224a439559b218576865402f4200d00b
:1021bc00a4e01900147a1431e0cae0c1902c00d0cc
:1021cc0093e05a1cd17f002903d0702252420a435b
:1021dc001a749a1cd27f002a00d081e00f210400cf
:1021ec008c43502c00d0d3e003217a4c0140227850
:1021fc00002a0bd01f25da1c5557002d06d1764a24
:10220c001e1d12680432d27f2570f277da1cd27f41
:10221c0052b2002a18d103276478661c3e40b142a2
:10222c0000d070e05d1dec7f0134ec779c1de277f3
:10223c001f245a1d14571a1dd27f52b2944200d03b
:10224c006ee00124da1cd477644ad27f52b2019238
:10225c006a461679fd22751c15403fd1604cfe3a3a
:10226c0022805c4a5478594aa14204d00327a6190b
:10227c003e40b14265d1019b574d961d012b55d166
:10228c001f232d68f3560335ed7f6db29d4201dda2
:10229c000133f3771f26504b951d1b68ae57033344
:1022ac00db7f5bb2b34259d1f0230f27d61d1374d9
:1022bc00f37f01333b40a7000124f3771600033270
:1022cc00d27f3c4352b21b012343d417a41ae40f10
:1022dc00083664002343f3770023eb773d4b5970aa
:1022ec0063463a4a01331372febd8f2c04d1591c3c
:1022fc00ca7f0132ca776ce71c746ae70131142972
:10230c0000d04de765e7651e3d40a94203d15d1d38
:10231c00ec7f013c89e7a14200d189e75c1d86e78f
:10232c0052429442dad1da1cff248ce71f232d6829
:10233c00f3560335ed7f6db26d42ab42aadd013b26
:10234c00a7e7264ef5775e1df577234e04333668e6
:10235c000536f67fde77224b1d809be75b429e4263
:10236c00bcd1f1230f27d61d1374f37fa400013bbe
:10237c003b400127f37716000332d27f3c4352b225
:10238c001b012343d417a41ae40f0836bc40a1e761
:10239c007f210140202912d10124d91cca77591d53
:1023ac00ca77991dca77197ca143f02900d11a74f8
:1023bc00f021084a073351700022da7790e7102c8d
:1023cc0000d08de70122034b1a7089e740010020f1
:1023dc000c2c00007e030020100000204301002084
:0423ec000c000020c1
:020000040000fa
:1023f000f8b55e4b1b78012b04d002f067f8042877
:1024000014d8f8bd594a0024147053789278584d66
:102410005849280002f02ef9280002f0a9f9564b7d
:102420001860564b1c7001f0bfffe6e702f012f88f
:10243000ad28e6d1524b1b78002b13d102f046f8a1
:102440000328ded902f006f8060002f003f84c4f2c
:10245000b87001f0ffff040001f0fcff050001234c
:102460003b7004e0012bccd1002500240026002382
:10247000444a1370444a1370414b9b78802b70d0b0
:10248000812b1cd0012b3dd0002b37d13f4a137834
:10249000012bfcd03e4f00233b702900200001f0af
:1024a00063fd22003100012001f0ccfd280001f085
:1024b000e5ffda2001f0e2ff01233b701ee0334a22
:1024c0001378012bfcd0324b00221a70220031000d
:1024d000280001f0b7fd002d0ad06519edb22000eb
:1024e00000f0d2fe01f0caff0134e4b2a542f6d1f9
:1024f000da2001f0c3ff264b01221a70204b002284
:102500001a707ee7214a1378012bfcd0204b002261
:102510001a7022003100280001f094fd002c13d025
:10252000002d0ad06519edb2200000f0adfe01f0db
:10253000a5ff0134e4b2ac42f6d1da2001f09effef
:10254000134b01221a70d9e7002001f097ff0020f9
:1025500001f094ff002001f091ff502001f08eff68
:10256000ebe7074b00221a704be7c04678030020c8
:102570008c000020cc450000580300203b030020c5
:10258000440300203a030020770300204a03002080
:042590003e040020e5
:020000040000fa
:10259400f0b587b0070002f023f802220c25594c4d
:1025a4007d4323889343238002f01af8564e336800
:1025b4005b685b195b68636402f012f831684b680e
:1025c4005a191088514bd887062302205f438b6821
:1025d400db1919789f88014201d0052119701b78f5
:1025e400db065b0f00d085e0917a494b09095b1843
:1025f4001b7a1b041f43137a3f021b063f0a1f4327
:1026040001f0eeffa764032701f0eaff33684149b4
:102614005b6822695b195b7a0a401b093b401b0516
:102624001343236101f0dcff33685b685b195a7a5a
:1026340023883a40384f12021f401743278001f085
:10264400cfff0721336802265b68344f5d19ea7aad
:1026540023690a4012043b401343236101f0c0ff85
:102664002388334323802e4b5b680293002b44d092
:1026740001f0b6ffa36c1b0e039301f0b1ff2369b5
:102684001b051b0f049301f0abff23889b059b0fd5
:10269400059301f0a5ff2388b343238001f0a0ff35
:1026a400012325791d433543edb201f099ff2571ce
:1026b40001f096ff1b4b25691a68082311780b4318
:1026c400137001f08dff23691f402761059a164b93
:1026d400049903980095029da84701f081ff23887f
:1026e4001e43268001f07cff0122237f13432377be
:1026f40007b0f0bdfc239b037ce701f071ff227f50
:102704000123f3e70058004204000020025800426d
:102714004c430000ffffcffffffcfffffffff8ff6c
:0c272400100300200000002010580042ac
:020000040000fa
:10273000f0b5c64600b5574b9b7d002b17d0554ac8
:10274000137edbb2927d52b2002a13db514a137e14
:10275000dbb2927dd20702d5db0700d582e04d4a7d
:10276000137edbb2927d520701d55b074bd404bccc
:102770009046f0bd5bb2002be8da464b5b8b07223c
:102780001340e3d0444ce38501f024fe414b842206
:102790001a752c230022e254636a002bd6d03e4add
:1027a000906a9847d2e7bb68f35c0b859368013366
:1027b0009360936898460b7e23420bd0404509d91d
:1027c0004b682b40012beed163469b685b009b5b03
:1027d0000b85ebe7304b9a685b689a42bfd32e4b70
:1027e00000221a755a602b4a01211175db68002bf3
:1027f000b5d0294a10699847b1e727490a6a89691b
:102800005200535215e0244a2c23d35c002baed047
:10281000214b1a6adb699a42a9d21e4a138d9bb2d8
:10282000516807220a40012ae7d01b4a116a9269bf
:102830005354194b1a6a01321a621a6adb699a42b6
:1028400000d094e7144b00222c215a54da61114a2b
:10285000583111755b6a002b00d188e70e4a906ae7
:10286000984784e70c4b1b7d002b00d177e70a4b80
:102870009a685868074b1b7edb07abd58242a9d20a
:10288000054b1e68034907259c461f001a000124ba
:0c28900096e7c046001000423402002011
:020000040000fa
:10289c00f7b58021424a434c1369c90023400b43ce
:1028ac00136153692340194351610b24002844d010
:1028bc0003680c2419880023009301939ab2914267
:1028cc003dd8009b0224002b37d0019b009a1b049f
:1028dc001a439446002001210f24334f0e376346d0
:1028ec00c3400b4211d0c35d1f2b3ad82f4d5a0851
:1028fc0052190b4231d010251678264035431570ed
:10290c002b4a9b181a780a431a7001302028e6d1fa
:10291c000024284d01f060fe274f2c803e7aa64201
:10292c0031d101f059fe6b469b883400ab8201f02b
:10293c0053fe009bab6101233b722000febd2200c5
:10294c005a434568019eaa18158852682e43009d6b
:10295c000196154300950133b0e71578a5430d4357
:10296c00cde7203bdbb2154d5a0852190b4206d06d
:10297c0010251678264035431570114ac1e7157895
:10298c00a5430d43f8e701f027feab8a019a1a43e1
:10299c00aa8201f021feab69009a1a43aa61cce726
:1029ac0000500042fff8ffff4c4300003000004194
:1029bc00400000410058004210030020b0000041cc
:0429cc00c000004106
:020000040000fa
:1029d000f0b58fb00d934b680c9006938b680d008b
:1029e0000793cb6816000393069b0f68002b44db0c
:1029f00002239f4310233b400a93079b04930a9ba7
:102a0000002b07d0726833681343079a02d0130073
:102a1000023b049308233b400b935a1e9341049ab4
:102a2000d31a04933368039a0893736809932b6944
:102a30005c1e00231355069b0593012c20dc0a9b8a
:102a4000002b52d10b9b002b03d02023039a013c77
:102a500013552b6900975a1e039b121b19190c98ca
:102a6000079b00f097fe0c9b5b68db0503d56b684a
:102a7000984200da18000fb0f0bd01230693b9e7c1
:102a8000089b099a13430cd1059b002b09dc069a7d
:102a9000049b9b1a059a9b18002bd0dd02231f4232
:102aa000cdd00f22089b013c134018005730092b52
:102ab00001dc303318000d9b413b192b06d8202335
:102ac0000343613b192b01d801f068fe039b1855a5
:102ad000059b013b0593099b1a07089b1b091a4399
:102ae000099b08921b090993a7e70cce1343a9d0b1
:102af000039b0d9a1b19013b1a703023039a023c69
:042b000013559fe7e3
:020000040000fa
:102b0400f0b50b238db0002823d0436806680193e9
:102b14009a78737806935b000a93530801330593fc
:102b240093b20b9300239c460093019b00991b884e
:102b34008b4211d8069b01990133dbb29342924137
:102b440089681340019ac95c526811700268537015
:102b5400002318000db0f0bd062300994b43b16863
:102b6400cb1803931b78db065b0f42d16146746874
:102b74004900611804910399049c49880a9d0993aa
:102b840061539a4231d9049c590061180024089178
:102b94000294012110e09f420bd0029d6f00049d1e
:102ba400ed5b0795089d2f88079dbd4217d1013124
:102bb400c9b2029d013502956d462f7aba42ead810
:102bc400059d8d4204d9a54206d96118a94203dbab
:102bd400089b1b88099313000133dbb2d1e7079ddf
:102be400bd42e6d20134e4b2e3e76946039b898c33
:102bf4005980009b0b9901339bb2009363468c462a
:082c040063449bb29c4690e77b
:020000040000fa
:102c0c0010200000f0ffffff8f000000102080005c
:102c1c00f0ffffff9000000010202080f0ffffff6e
:102c2c00900000001080a090f0ffffffd00100008a
:102c3c0012305020f2ffffff11000000123050a0a4
:102c4c00f2ffffff1301010010305020f0ffffffd7
:102c5c0010000000103050a0f0ffffff1201010027
:102c6c0011325220f1ffffff21000000113252a05f
:102c7c00f1ffffff2301010010325220f0ffffff94
:102c8c0020000000103252a0f0ffffff22010100d3
:102c9c0018335320f8ffffff31000000183353a006
:102cac00f8ffffff3301010010335320f0ffffff4b
:102cbc0030000000103353a0f0ffffff3201010081
:102ccc0014315120f4ffffff41000000143151a0da
:102cdc00f4ffffff4301010010315120f0ffffff13
:102cec0040000000103151a0f0ffffff4201010035
:102cfc0000010203010101010201020203010203ae
:020000040000fa
:102d0c00f0b5060085b00f0015001c008b4265d88d
:102d1c0001d1824262d82100280001f099fc3900cf
:102d2c000090300001f094fc009b21001b1a1a004b
:102d3c002800039301f080fc00900191019bbb42a1
:102d4c0046d802d1009bb34242d8009b019c039a07
:102d5c0001200021f61aa74101f06efc039b002b09
:102d6c002fd0019b009adb0754081c43019b5d0884
:102d7c00039b9c46bd422ed801d1b4422bd83200c5
:102d8c003b00121bab41012692185b410027b61881
:102d9c005f4101235b429c446346002bead18019be
:102dac007941039a04000d003000390001f038fc21
:102dbc00039a06000f0001f03ffc241a8d412000fd
:102dcc0029000a9b002b01d01e605f6005b0f0bd8e
:102ddc0000200021c2e7b6197f41dae7002000216c
:022dec00efe70f
:020000040000fa
:022dee00fee7fe
:020000040000fa
:102df000f7b5070001910b24002951d000284fd0ce
:102e0000294d03242b7a002b4ad00124042b47d0d0
:102e1000022403685b79013ba34241d8234e01f0b1
:102e2000e1fb3388a3433380214b1f60019beb60a0
:102e300000f03afe80221f4bd205da67bff34f8fb6
:102e4000bff36f8f0323b37201f0ccfb0122737abf
:102e5000802113437372184bc9051a70c023174a97
:102e60005b00d150c722ff20144b920099583b6859
:102e700000045b799b050340114801400b430f4957
:102e80008b508022d2050a6000232b8001f040f98c
:102e9000061e07d1042328882b723400fff77afb23
:102ea0002000febd2c72fbe71003002000580042fa
:102eb0000400002004e100e03f04002000e100e005
:042ec000ffff00ff11
:020000040000fa
:102ec40010b5294b1b78012b06d0284b1b78012bfe
:102ed4000cd0fff78bfa10bd25492648fff786ff73
:102ee4000028f2d1204b00221a70eee71f4b00227b
:102ef4001a70fef797fc002823d11f48fff700fe45
:102f0400002812d11d48fef747fa002811d11c48a9
:102f1400fdf7e6f8002810d11a48fdf765fd0028f2
:102f240012d0194b05221a700ee0174b02221a70a8
:102f3400e8e7154b03221a70e9e7134b04221a70d1
:102f4400eae7114b01221a700c4b1b681b787f2b8c
:102f540005d80e4b01221a70fef79effb9e7024b0b
:102f640001221a70f8e7c0467b0300207d0300208d
:102f7400c547000070040020c00400204004002065
:102f840094040020c804002073030020720300206e
:020000040000fa
:102f9400284b5a6852031b68db0c13439b029b0aa1
:102fa400254a9363137d40210b4313750023537506
:102fb400110004228b691a42fcd11f491022cb68ec
:102fc4001a42fcd01d4b00229a611a611c4b1d4a07
:102fd4001a62190004224b681a42fcd1184b1a4a8f
:102fe4005a62190008224b681a42fcd1144a9823e9
:102ff4004121d15010005731402243581a42fcd08d
:103004000f4ad8234021d150100098314022435810
:103014001a42fcd00a4a8a235b004121d150100095
:103024001900402243581a42fcd0084b084ada617e
:103034007047c0462060800000100040001400402b
:10304400001c00400601010006210c00000800409d
:043054001100400027
:020000040000fa
:10305800f0b5c66885b007000d0030001900019270
:103068001c0001f0c7fa011c030400d500210bb2b3
:10307800039300230293ac420ad0611e89b2300048
:1030880001f0b8fa011c030400d500210bb2029329
:10309800019bea18013a0023944209d0611c89b2c5
:1030a800300001f0a7fa031c020400d500231bb26c
:1030b8006a461189641b9bb22403928999421bd3e7
:1030c800d01a80b2c31ac91889b20c2200f046fd82
:1030d8000e4bc01880b2019b0019022b06d91900ab
:1030e800013989b280b2002200f038fd81b238007f
:1030f80000f090fd05b0f0bd581a80b2511a411881
:1031080089b20c2200f02afde5e7c04600f0ffff77
:020000040000fa
:1031180010b588293cd015dc81294dd003dc8029e5
:103128004ad0002010bd822911d08429f9d119680c
:10313800002a26d00a1d1a6000228b5e0360db1766
:10314800436011e0a02930d010dc9029e9d119683a
:103158000724002a2ed00919a1430a0008321a6050
:103168000b684c68036044600120dbe7c02901d08c
:10317800f029d6d11a68111d19601368036000235d
:10318800dee70c1d1c600b689bb203604260ebe736
:103198001968002a04d00a1d1a600023cb56cde70f
:1031a8000c1d1c600b68dbb2efe71a68111d196073
:1031b8001368c3e70731cfe71968002a03d00a1d4f
:0e31c8001a600b68bae70c1d1c600b68dde78f
:020000040000fa
:1031d600f0b54b6889b005930b6807009c460793ca
:1031e600cb680c008e68049310685168cd0f44d0ec
:1031f6000b000200002150429941059b002b08db81
:103206000222634693430793002d02d1079b5a0778
:103216002ad5731e07aa02920a22009301920b0076
:103226000200200000f037fa002d02d1079b5a0752
:103236001ed501382d23002d00d1023b049a1354cc
:1032460023695a1e049b121a1918079b380000930b
:10325600330000f09cfa7b68db0503d5636898426f
:1032660000da180009b0f0bd1b07db0ff31ad1e72f
:103276001b07e5d501382023e0e7059b002bbfdac5
:02328600c4e79b
:020000040000fa
:10328800072802d8214b185c70470300103b052b18
:1032980004d81f4b181810380078f5e70300203bb6
:1032a800092b04d81b4b181820380078ece70300ca
:1032b800373b0d2b04d8184b181837380078e3e73c
:1032c80003007433dbb2092b04d8144b18188c385c
:1032d8000078d9e703005d33dbb2132b08d85a080e
:1032e80052000f49525a100adb07cdd4d0b2cbe7af
:1032f8002f30c3b20020132bc6d85a0852000949f0
:10330800525a100adb07bfd4d0b2bde7b804002078
:103318004c030020a004002060040020300300209b
:08332800d4020020e80200209d
:020000040000fa
:10333000f8b501f057f90221204a13888b43138016
:1033400001f0d6f81e4b1f4c1f4a18881988238895
:1033500012685b00d1521d4b80b21b78012b02d04a
:10336000022b10d0f8bd23880133238000f0d0fe5b
:10337000002805d12088fff70df904232372f1e717
:10338000e3689847eee70c210f22114b25881e6851
:1033900069437368002759188b7a1a40cb7a9a428e
:1033a00001d29b1adfb20621f8406943b3685b186b
:1033b0005880022323722369e3e7c0460058004285
:1033c0005858004210030020080000203f0400204d
:0433d00004000020d5
:020000040000fa
:1033d40070b5204b1b78002b04d01f4b1b78012b9e
:1033e40003d070bd00f040f8f7e71c4b1b78002bae
:1033f400f7d1184d063510242000fff743ff28703d
:1034040001350134e4b2162cf6d1124b1e001436e9
:103414001c005d256d42ed1a2819c0b2fff732ff7a
:10342400e0740134b442f7d10a4d2e358c242000c7
:10343400fff728ff287001350134e4b2962cf6d149
:10344400074b1b78012b02d0064b01221a7001f0a6
:1034540043f9c6e7f80100203e0400204a03002097
:08346400440300203b0300209b
:020000040000fa
:10346c0070b51d4bad241c700a225a7000229a7044
:10347c000121d9701a7110205871ca3018735c73fd
:10348c0018259d73d97319745a748b359d747c3db2
:10349c00585501355c55843c1a3d1d550134093d88
:1034ac001d55013419552b315a542d326031995414
:1034bc000b329854094c2168094801f089f92168ac
:1034cc00084801f08bf9084b1b780848c0180121fb
:1034dc0000f0d4fd70bdc046f80100205c03002054
:1034ec00293e0000b54200003a030020c002002033
:020000040000fa
:1034fc00f7b5c7681500380001930c0001f078f897
:10350c0029000600380001f073f8331c864200d9fc
:10351c00031c9bb20093ac421dd90135164eadb2c3
:10352c00ac420cd1019b002b04d0009bd808181a7c
:10353c0083b20093009b9e42b6417042febd2900af
:10354c00380001f055f8031cb04200d9331c01358a
:10355c009eb2adb2e4e70134074ea4b2a542e1d964
:10356c002100380001f044f8031cb04200d9331c90
:0c357c0001349eb2a4b2f1e7ffff000092
:020000040000fa
:10358800002934d00123002210b488422cd301240e
:103598002407a14204d2814202d209011b01f8e7a3
:1035a800e400a14204d2814202d249005b00f8e75c
:1035b800884201d3401a1a434c08a04202d3001b88
:1035c8005c0822438c08a04202d3001b9c082243bb
:1035d800cc08a04202d3001bdc082243002803d0f9
:1035e8001b0901d00909e3e7101c10bc704701b59d
:1035f800002001f009f902bd0029f8d003b5fff752
:0c360800c1ff0ebc4243891a1847c0469f
:020000040000fa
:10361400f0b506241e4b44431a68002093681c1915
:1036240063888b422cd02cd2c91a126889b2937841
:10363400402b00d149080120842921d800200529e4
:103644001ed9cf250f261527a3881c009804800fa8
:1036540068431d1235407d431b11334040195b0004
:10366400c018344080b2052c0dd8d378094a9b0683
:103674009b0f5b009b5a594389b288428041404268
:10368400f0bd591ad1e70130053c80b2e4b2eae753
:08369400040000204c4300007b
:020000040000fa
:10369c00f0b5050085b019000c9b100001931a6859
:1036ac002b696c68013bef681d00002c00da0124cb
:1036bc000026fe540a9e0123361b02960226164053
:1036cc000b9ad2170392002d04dc002b17d0280084
:1036dc0005b0f0bd02000a4307d1002c05dc029aac
:1036ec001219002af1dd002eefd00b9a039b00f08b
:1036fc0049fd013d130030327a55013ce3e71023bc
:0e370c00019a12689a431300019a1360dfe7d6
:020000040000fa
:10371a00f7b50c25c3684d439c46032382684b4387
:10372a0055196c6863442d8964889f781b78641bdb
:10373a00e41aa3b201930025436860461e88b54285
:10374a0001d10020febd8d4218d08378bb4215d12d
:10375a0013787b33dbb2012b15d913899c46536846
:10376a005b889c450ad264461b1b04789bb2a34221
:10377a0004d91b1b019c9bb29c4204d30135adb2f8
:0a378a0003300c32dbe70120dce71e
:020000040000fa
:10379400f0b51d00012389b014000e9a06001a40ea
:1037a4000391029201d1a5420ad822000399300064
:1037b40000f076fea54203d82500280009b0f0bd2c
:1037c4002f1b01973a00102f00d91022202104a8a2
:1037d40000f0c4ff019b0f2b0ed80f2204a93a401e
:1037e400300000f05dfe029b002be6d1220003991d
:1037f400300000f055fee0e7102204a9300000f08c
:0a3804004ffe019b103b0193e4e727
:020000040000fa
:10380e008223db05802212031a601a6101225121e4
:10381e005a5401315a5401310020585401315a542e
:10382e0001315a5401315a5401315a541f39103052
:10383e00585401315a5428392a3019548e301a549a
:10384e0001301a5401301a5401301a5401301a54ee
:10385e0001301a5401301a5401301a54b3329954ab
:10386e0001329c38985401329954013299547c3a61
:06387e001131995470475e
:020000040000fa
:1038840070b500282fd0194b1a7d0023002a26d1a9
:10389400164b1860596001321a75154b1b7edb07f5
:1038a40016d500291dd00023114c0726012507e059
:1038b400c25c22850133227e2a420ad0994208d969
:1038c40062683240012af3d15a00825a2285f1e714
:1038d4000023064a9360064b01229a7501231800bf
:1038e40070bd0b00f5e70023f9e7c0463402002061
:0438f400001000427e
:020000040000fa
:1038f8000021f0b5174b184a934208d30027174afe
:1039080013685168002b05d1002903d1f0bd197047
:103918000133f1e7100095680c305c18002d16d0c3
:103928000b25ed1a5219a3420ad10b0003221340aa
:103938005a1e934189085918890040180200dfe788
:103948005d1cae5c1e702b00ede71f700133a342b7
:10395800fbd1f3e70000002014000020dc0e00007b
:020000040000fa
:10396800f0b50b680c008f68cd68496887b0060011
:103978000593002902db02218b43059305a95368af
:10398800126802910821009701912000fff782fe3a
:10399800059bdb0602d5302301382b54059b1b07fa
:1039a80002d5202301382b54236929185a1e059b58
:1039b800121a009330003b00fff7e8fe7368db053e
:0e39c80003d56368984200da180007b0f0bd1e
:020000040000fa
:0239d600fee70a
:020000040000fa
:1039d80070b500f035fc1348fef75cff124800f0a4
:1039e80065fe00240f4d2100280000f0a1fd2100f4
:1039f800280000f03dfa0134a4b20a2cf3d10b4d93
:103a080000240b4ee1b22a00300000f0a1fd013481
:103a1800a4b206350a2cf5d1064800f0edfc00f0fa
:103a280075fd70bd70040020fc020020bc01002060
:083a380040040020940400206a
:020000040000fa
:103a400010b584291fd007dc812915d0822922d006
:103a5000802911d0002010bd90291cd008dc8829b5
:103a6000f8d119680c1d1c600b6803601a7010e017
:103a7000a02901d0c029edd119680c1d1c600b686c
:103a800003601a6005e019680c1d1c600b68036078
:103a90001a800120dfe719680c1d1c600b680360a9
:083aa0001a60d2175a60f4e726
:020000040000fa
:103aa800134b70b51b6808241b689a78402a15d0f8
:103ab80002200a24802a11d070bd0e490c400f2123
:103ac8000b401b0214401c4300f088fd50230a4d94
:103ad8002b8000f083fd2c610020ede71b79074a5d
:103ae8000f2bead980235b011c431440ece7c04646
:103af80004000020ffefffff00580042fff0ffff27
:020000040000fa
:103b080010b5134b18780230c0b21870092808d8bd
:103b1800104b1b780233dbb2092b0fd80d4a1370f8
:103b280010bd0a21fff72cfdc0b200f0ddfd084ce6
:103b380020780a21fff760fd2170e9e7054b002294
:103b48001a70054b01321a700a2000f0fdfde7e7f4
:0c3b58007c030020710300207b03002090
:020000040000fa
:103b6400013210b5d2b2002906d1134b180010bd92
:103b7400013a4000d2b280b203b2002b01db002a2a
:103b8400f6d10bb2002b11da0023002aeed01cb2be
:103b9400002ceadb5b00013a9bb2d2b2884203d329
:103ba400401a013380b29bb24908eee70132490062
:0c3bb400d2b289b2e5e7c046ffff000076
:020000040000fa
:103bc000f7b50d001900070001921c0000f016fd6a
:103bd00000260090ac4205d9611e89b2380000f081
:103be0000dfd0600019b0020ed18013dac420cd2fa
:103bf0000c2301346343fb185a681b8952889a428c
:103c000003d9a1b2380000f0f9fc009b864202d92a
:0c3c1000f618b0b2febdc01880b2fbe791
:020000040000fa
:103c1c00802210b5c37952011c09081c914200d9ad
:103c2c00101c0f2180b2194012d028230139c9b2bf
:103c3c00013159430023884201d3401a83b28022b8
:103c4c0049005201511a89b20c221800fff784ff67
:103c5c00054a031c904200d9131c98b20c231c1b60
:0c3c6c00204180b210bdc046ff0f0000d8
:020000040000fa
:103c780000230e4a10b513600d4a13600d4a1360f5
:103c88000d4a13600d4a13600d4a536213610133e4
:103c9800936000f06efb00f06cfb0a4c0a4b9c42f0
:103ca80000d310bd08cc9847f8e7c0466803002049
:103cb800fc000020f8000020f0000020f4000020a4
:0c3cc80000010020c8000000cc0000003b
:020000040000fa
:103cd400114b124a1a60124a9a81c02292025a6007
:103ce4001a00d369002bfcd10b4a136802210b4341
:103cf4001360d369002bfcd10a4b00229a61da616c
:103d04001a622c215a545a621a605a609a601a75bf
:103d1400da60da857047c0460010004204011040a2
:083d24002bf6ffff3402002022
:020000040000fa
:103d2c00f0b50b680c008f68cd68496887b0060049
:103d3c000593002902db02218b43059305a95368e7
:103d4c00126802910a21009701912000fff7a0fc54
:103d5c00236929185a1e059b121a009330003b0048
:103d6c00fff712fd7368db0503d56368984200da30
:063d7c00180007b0f0bdc5
:020000040000fa
:023d8200fee75a
:020000040000fa
:103d8400062359430c23584310b5114c09186318e2
:103d94005888085398889a80588080b2824213d0f9
:103da4000b5b984210d09a420fd0824206d99842b7
:103db4000ad8101c9a4206d9181c04e0984203d36e
:103dc400101c9a42f8d380b210bd1000fce7c04624
:043dd4006402002065
:020000040000fa
:103dd80030b5bff35f8f62b60f4bc02080001a5812
:103de8000e4c2240c02109040a431a5004221a60ca
:103df8000c301a58ff25aa433f3d2a431a50802207
:103e080052011a6010301a5822401143195080226a
:103e1800d2051a6030bdc04600e100e0ffff00ff98
:020000040000fa
:103e280010b50e4b1b78012b03d00d4b00221a70d6
:103e380010bd0c4b18680c4b1b68984203d3084bf9
:103e480000221a70f4e7094b18180121fff716fd34
:103e5800044a136801331360eae7c0463e040020b1
:103e68004a03002054030020580300208c0000203f
:020000040000fa
:103e7800030010b50b20002b16d01a6802201488f6
:103e88008c4211d392789b68402a0ed106228d204d
:103e98004a4380009a18908000200622514302224b
:103ea8005b1819780a431a7010bd803ad2b2012af9
:103eb800f3d806224a4301489a18ece76705000040
:020000040000fa
:103ec800f0b50f0087b0039015001049072204a829
:103ed8001c0000f027fcbb687e6802933f68002d39
:103ee80000d104ad002c03d1280000f03dfc0400f3
:103ef800002e02dbb44200d934000097029b220056
:103f080029000398fff742fc07b0f0bd0448000001
:020000040000fa
:103f180030b51500012289b0524201920432ff32b5
:103f28000292002800d16846002403900491a1421f
:103f380000d04c1e0594002906da4f220120074bb9
:103f480040421a6009b030bd002207900270069006
:103f58001a00290001a800f059fbf3e76c030020c0
:020000040000fa
:103f6800042808d00300223b072b0cd80b4b181849
:103f78002038017001e00a4b19710a4b01221a70ae
:103f880000231800704701230200373a0d2af8d899
:103f9800054b181837380170efe7c046a004002019
:0c3fa800b8040020330200206004002058
:020000040000fa
:103fb40010b5064c2378002b07d1054b002b02d0fb
:103fc400044800e000bf0123237010bd8c020020d0
:103fd4000000000000000000044b10b5002b03d0cb
:103fe4000349044800e000bf10bdc04600000000c3
:083ff400900200200000000013
:020000040000fa
:103ffc0010b50a4b98470a4b984700f0f9fb094b50
:10400c00ff229343084a9360084b9847084b984704
:10401c00084b984700f0aefbfee7c0460f4100008e
:10402c000f4100000000000000ed00e0793c0000b2
:08403c000f4100000f410000dc
:020000040000fa
:1040440070b504000e0015000c4b00221a70421dbe
:104054000b4b1a70ad2000f00ffa201dc0b200f017
:104064000bfa300000f008fa012000f005fa0020f5
:1040740000f002fa280000f0fff970bd520300209e
:044084004b030020ca
:020000040000fa
:1040880070b504000d00002815d00c4a2c23d35c11
:104098000020002b00d070bd00f098f9074b9c6100
:1040a800dd6100221a622c2101205854da85044b64
:1040b80084329a75efe70020ede7c046340200200d
:0440c80000100042a2
:020000040000fa
:1040cc00002a17d04b1c984214d04b1e984211d08a
:1040dc0043189bb2012a02d142009b1802e0022a2b
:1040ec0009d15b009bb2884207d902339bb20233e1
:1040fc0098b2800870474a00efe78842f7d2023b3b
:02410c00f4e7d6
:020000040000fa
:02410e007047f8
:020000040000fa
:104110000d4a70b51068012502680c491488062202
:104120000b885a43a3420ad28668b65c06322e42f6
:1041300002d101339bb2f5e700200b8070bd002354
:1041400001200b80fae7c046040000201003002085
:020000040000fa
:10415000030010b51a78202a0dd01100093904295e
:1041600009d900212b2a02d02d2a01d10131013396
:1041700000200a2404e00133ece760430133801a95
:104180001a78303a092af8d9002900d1404210bde6
:020000040000fa
:10419000002b11d1002a0fd1002900d1002802d014
:1041a0000021c943081c07b4024802a1401802902c
:1041b00003bdc0465d06000003b4684601b5029821
:1041c000fef7a4fd019b9e4602b00cbc7047c046a2
:020000040000fa
:1041d00010b50d4908888b884a88c988c31a1bb254
:1041e000521a12b2d9175818d41748401119614001
:1041f000884204dbd817c01ac00f400010bd012050
:0c420000002afbdc0320f9e7400100204d
:020000040000fa
:10420c001c2101231b04984201d3000c10391b0afa
:10421c00984201d3000a08391b09984201d30009be
:10422c00043902a2105c40187047c0460403020215
:0c423c0001010101000000000000000072
:020000040000fa
:1042480010b50a4b19680a4800f0b2fa0949082261
:104258000b691a42fcd100f099f9002000f012fa1b
:10426800012000f019fa00f083f910bd6003002066
:08427800f5470000002400409e
:020000040000fa
:104280000b4b01221a8019000b691a42fcd1084b12
:10429000c02252001a80803aff3a1a6219001f3277
:1042a0000b691a42fcd1024b802252005a8170479e
:0442b00000240040a6
:020000040000fa
:1042b40010b50a4b1b780133dbb2142b09d0074a23
:1042c4001370064b1b780648c0180121fff7dafe6d
:1042d40010bd024b00221a70f3e7c0463a030020d7
:0442e400c0020020f4
:020000040000fa
:1042e800f0b5050000200a4c4200165d002e02d1f0
:1042f800a2185078f0bd296801300f78c0b2b742d3
:1043080003d1a2180131507829600a28ecd9f1e7c5
:04431800b0450000ac
:020000040000fa
:10431c0010b50a4b06225a60fff773fafef734fe0b
:10432c00fff7d2fc00f03cfa00f004fafff7a2ff12
:10433c00fff74cfbfff74afd10bdc04600400041a3
:020000040000fa
:10434c0007001300350090003f1c0b05030102030e
:10435c0004050607202122232425262728290809bd
:0e436c000a0b10111213141516172c2d2e2fdc
:020000040000fa
:02437a0070478a
:020000040000fa
:10437c0010b5074b988980b2064a5060064999815e
:10438c009b891368002b01d09168984710bdc046db
:0c439c000024004024030020ff81ffffec
:020000040000fa
:1043a80010b5074b1b78002b00d010bd0133044a11
:1043b8001370044a136001210348fff75ffaf4e71a
:0c43c8004a030020540300208c00002059
:020000040000fa
:1043d400094b5b8b5b070dd0074b80221a76793a29
:1043e4005a831b7e5b0705d5034b04211a8d1a7e65
:0c43f4000a42fbd17047c0460010004296
:020000040000fa
:1044000003000b20002b0fd05b68002b0cd000208a
:10441000187058809880d880188158811873d88176
:0a442000188258829882d8827047f3
:020000040000fa
:10442a00002380290fdb812901dd83290bd1072194
:10443a00136807338b431900083111601a685b68e7
:0a444a000260436001231800704770
:020000040000fa
:10445400074b1b78074ad05c0133dbb2142b02d024
:10446400034a13707047024b00221a70fae7c046e1
:0844740077030020c0020020c4
:020000040000fa
:10447c0000b583b06b46d8710733064a0121117021
:10448c001800fff7f9f9034a1378012bfcd003b09d
:08449c0000bdc0464a030020e8
:020000040000fa
:1044a40070b505690400954200d915002a006069b9
:1044b40000f03af9226963695b19551b00222561f2
:0644c40063611a7070bd77
:020000040000fa
:1044cc00064b1878064b1b78984202d3c01ac0b220
:1044dc0070471430c01ac0b2fae7c0463a03002045
:0444ec007703002032
:020000040000fa
:1044f0000222074b997ac9b2114202d0987a02433c
:104500009a720122114202d0997a0a439a72704734
:04451000005800420d
:020000040000fa
:1045140000200121054b49425a1cd077044a1872e5
:10452400d8602933118018707047c04640010020bc
:044534000c00002057
:020000040000fa
:104538000b2300280ad003681a8802238a4205d36d
:1045480006235943012382688b54002318007047bf
:020000040000fa
:104558000b23002809d0002a07d00c234b4381687d
:0e456800c91801230b7000234a601800704729
:020000040000fa
:10457800054a138802210b431380110002220b699c
:0c4588001a42fcd17047c04600240040dd
:020000040000fa
:10459400054a138802218b431380110002220b6900
:0c45a4001a42fcd17047c04600240040c1
:020000040000fa
:1045b00068076c094c836a9074a07ac00080688890
:1045c00000846c820081286e696c290047657374d1
:1045d0007572653a202530327820253032780a0d00
:0445e0000000c046d1
:020000040000fa
:1045e40001220449cb7a13401a4200d17047cb7a96
:0845f400fae7c046005800423e
:020000040000fa
:1045fc000c2359434018436802895b88002093427e
:08460c0001d99b1a98b2704716
:020000040000fa
:1046140013b50400019201aafdf7acfa6368db0646
:0846240001d50120404216bd42
:020000040000fa
:10462c00d0400b1cd1409c46203ad34018435242f8
:10463c0063469340184370479140031c90409c463e
:10464c00203a9340194352426346d3401943704772
:10465c0010b5002903d1fff7d3fd203002e0081c70
:08466c00fff7cefd10bdc046b2
:020000040000fa
:104674000eb403b503aa02ca019200f041f802b0d5
:0646840008bc03b018475a
:020000040000fa
:10468c00034b9861190008220b691a42fcd1704740
:04469c0000240040b6
:020000040000fa
:1046a000034b1862190020220b691a42fcd1704793
:0446b00000240040a2
:020000040000fa
:1046b4000b23002802d0024b186000231800704717
:0446c40008000020ca
:020000040000fa
:1046c800034b28331878431e9841c0b27047c04640
:0446d800400100207d
:020000040000fa
:1046dc00034b0022190028310a701a747047c04627
:0446ec004001002069
:020000040000fa
:1046f000034b00215a5e002a01db801818807047a6
:044700000c00002089
:020000040000fa
:1047040010b513000a000249fff704fc10bdc046af
:04471400ffffff7f25
:020000040000fa
:1047180003b47146490840004900095a49008e44cb
:0447280003bc704717
:020000040000fa
:10472c00002310b59a4200d110bdcc5cc4540133a7
:02473c00f8e79c
:020000040000fa
:104740008423db05014a1a627047c04604c2000098
:020000040000fa
:10475000024b1a88801818807047c0467e010020de
:020000040000fa
:1047600003001218934200d1704719700133f9e722
:020000040000fa
:1047700003001a78002a01d1181a70470133f8e7ac
:020000040000fa
:0e47800010b50020fff7cafdfef79cfbfce71a
:020000040000fa
:0e478e000300413b192b01d82023184370472c
:020000040000fa
:0e479c000300613b192b01d85f2318407047c2
:020000040000fa
:0c47ac00014b84225a607047004000411d
:020000040000fa
:0c47b800014b186099607047240300203a
:020000040000fa
:0c47c400014b01221a7070477d03002099
:020000040000fa
:0c47d00010b5fff78dfefef7abfd10bd2d
:020000040000fa
:0c47dc00014bd8601961704734020020c6
:020000040000fa
:0c47e800014b58629962704734020020b7
:020000040000fa
:0847f40010b5fff787f910bdb5
:020000040000fa
:0847fc0010b5fff77bf810bdba
:020000040000fa
:07480400286e756c6c2900a1
:020000040000fa
:04480c0000207047d1
:020000040000fa
:044810007047c046e7
:020000040000fa
:0200000400807a
:04400000770800003d
:020000040000fa
:0200000400807a
:044004000000ffffba
:00000001FF
